:020000040800F2
:10000000F80F0020A5010008B31D0008711A0008B0
:10001000B11D0008B90200086527000800000000B3
:100020000000000000000000000000003D22000869
:10003000BB02000800000000B51D00083F220008B8
:10004000BF010008BF010008BF010008BF01000890
:10005000BF010008BF010008BF010008BF01000880
:10006000BF010008BF010008BF010008BF01000870
:10007000BF010008BF010008BF010008BF01000860
:10008000BF010008BF010008BF010008BF01000850
:10009000BF010008BF010008BF010008BF01000840
:1000A000BF010008BF010008BF010008BF01000830
:1000B000BF0100080000000000000000751A0008E1
:1000C000BF0100080000000000000000BF010008A0
:1000D00000000000F9260008BF0100080000000031
:1000E000BF010008BF010008000000000000000080
:1000F0000000000000000000000000000000000000
:10010000000000000000000000000000BF01000827
:100110000000000000000000BF010008BF0100084F
:10012000BF010008BF010008BF010008BF010008AF
:10013000BF010008000000000000000000000000F7
:10014000BF010008BF010008BF010008BF0100088F
:10015000BF010008BF010008BF010008BF0100087F
:10016000BF010008BF010008BF0100080000000037
:10017000BF010008BF0100080000000000000000EF
:10018000BF010008BF010008BF010008DFF810D060
:1001900000F080F80048004715280008AFF3008001
:1001A000F80F00200648804706480047FEE7FEE7B4
:1001B000FEE7FEE7FEE7FEE7FEE7FEE7FEE7FEE717
:1001C000D92200088D0100082DE9F05F05460020C6
:1001D00092469B4688460646814640241BE02846B8
:1001E00041464746224600F044F853465A46C01A54
:1001F000914110D311461846224600F02BF82D1AD3
:1002000067EB01084F4622460120002100F022F84A
:1002100017EB00094E41201EA4F10104DFDC484623
:1002200031462A46434600F000B830BCBDE8C09FC6
:10023000D2B201E000F8012B491EFBD27047002228
:10024000F6E710B513460A4604461946FFF7F0FFD5
:10025000204610BD202A04DB203A00FA02F10020DB
:1002600070479140C2F1200320FA03F319439040F4
:100270007047202A04DB203A21FA02F0002170475F
:1002800021FA02F3D040C2F12002914008431946FE
:1002900070470000064C074D06E0E06840F001039F
:1002A00094E8070098471034AC42F6D3FFF772FF8A
:1002B0006032000880320008FEE7704710B590F801
:1002C00025100024022903D00421C16301241AE06F
:1002D00001680A6822F00E020A6001680A6822F0CA
:1002E00001020A6090F84410036C01F01C02012125
:1002F00001FA02F25A6080F82510002180F82410DB
:10030000816B01B18847204610BD000070B50446DE
:1003100000F0EAF80546601C02D004480078044466
:1003200000F0E2F8401BA042FAD370BD7800002034
:100330002DE9FC4FDFF880A1002301250AF1040B11
:1003400003244FF00F0C0BF1040EAEE005FA03F698
:1003500032406FD04F68012F05D0022F03D0112FEC
:1003600001D0122F17D1D0F808905F0004FA07F8D7
:1003700029EA08090097D1F80C8008FA07F848EA3A
:100380000908C0F808804768B7430E79C6F300161D
:100390009E403E434660C6684FEA430804FA08F7A9
:1003A000BE4301978F6807FA08F73743C7604E6866
:1003B000022E01D0122E13D1DE0800EB8606009625
:1003C000366A5F07FF0E0CFA07F926EA0906D1F82C
:1003D000109009FA07F949EA0609009EC6F820902C
:1003E0000768019EB7430E7906F0030606FA08F681
:1003F0003E4306604E68F60056D5304E376E47F0E5
:1004000001073766366E23F0030706F001060096F3
:100410002B4E3E44B146B6689F074FEA17780CFA58
:1004200008F7BE43B0F1904F05D0264FB84204D133
:10043000012708E038E0002705E0234FB84201D14A
:10044000022700E0072707FA08F73743C9F80870C2
:10045000DAF800605746D1F8048096435FEAC8385E
:1004600000D516433E60DBF800605F46D1F804809B
:1004700096435FEA883800D516433E60DEF8006098
:100480007746D1F8048096435FEAC82800D5164322
:100490003E60094F0C373E68D1F8048096435FEA0E
:1004A000882800D516433E605B1C0A6832FA03F6C2
:1004B0007FF44CAF00F00AB8000401400010024085
:1004C0000000014000040048000800481CBCBDE8D2
:1004D000E08F0069084000D0012070470AB18161B7
:1004E00070478162704700000148806870470000D3
:1004F0007800002090F84120202A24D190F8402054
:10050000012A20D0012280F84020242280F84120B6
:100510000268136823F0010313600268136823F470
:1005200080531360026813680B43136001680A6804
:1005300042F001020A60202180F84110002180F879
:100540004010084670470220704790F84120202A4A
:1005500022D190F84020012A1ED0012280F84020AC
:10056000242280F841200268136823F001031360FD
:100570000268136823F4706343EA01211160016883
:100580000A6842F001020A60202180F8411000212F
:1005900080F8401008467047022070470268916951
:1005A0001268436B002B00D01847704770B50400E9
:1005B00004D094F84100002510B106E0012070BD80
:1005C00084F84050204600F02FFA242084F841009F
:1005D0002068016821F0010101606068216820F055
:1005E000706008612068816821F400418160E068E2
:1005F0000128A06807D040F4044021688860E068C2
:10060000022803D006E040F40040F6E721684FF4EA
:100610000060486020684168114A114341602068C9
:10062000C16821F40041C160D4E904010843A16913
:1006300040EA01202168C860D4E907010843216825
:1006400008602068016841F00101016065642020B4
:1006500084F84100256384F84250002070BD0000FA
:10066000008000022DE9FC4700260446019690F820
:1006700041001F469246894620287ED12068806925
:10068000C043000479D594F84000012875D00120BA
:1006900084F84000242084F8410066644FF020086C
:1006A000E068012809D029F4544040F42050216822
:1006B0004860FFF719FF05460DE0314949EA01009E
:1006C00030490840F3E7781C05D0FFF70DFF401BC9
:1006D000B84219D8C7B1216888698969C0F3401048
:1006E000C1F300110843EED0206880693B46C04347
:1006F000C0064FF000024FF020012046009517D5AC
:1007000001F05AFA68BB09E084F8418054F8440FBC
:1007100040F0200044F80409267022E02168C1F866
:100720001C8084F8418084F84060002000F02CB8E0
:1007300001F042FAA8B921681020C8612168C1F807
:100740001C800198504512D12068416841F48041D5
:1007500041603B46002220212046009501F02CFA02
:1007600010B10120E2E708E02168C1F81C8001987F
:10077000401C0190504593D3C6E70220D6E7000005
:1007800000200002FF2300020CBCBDE8F08700003F
:100790002DE9F84F044690F84100DDF828A01F46E7
:1007A00090468B4620287ED194F8400001287AD0CC
:1007B000012084F84000FFF797FE064601220090D2
:1007C0001923D103204601F0F7F9E0BB212084F87A
:1007D0004100102084F8420000256564C4F824809C
:1007E00067856563618D3148FF274FF080784FF052
:1007F0000079FF2903D927853A46009039E0618DB9
:10080000218500903AE05946204601F0BFF913E0F7
:1008100001F024FAB8B9606A216800788862606AD9
:10082000401C6062608D401E6085208D401E80B23D
:100830002085618D01B168B1608D32460028514636
:100840002046E5D100E002E001F0E2F9D0B101205C
:1008500000F030B85346002280212046009601F077
:10086000ABF90028F3D1608DFF2804D927853A46DB
:1008700000954346C7E7608D2085009594F82820B1
:100880004B46C0E721682020C86121684A68084BB0
:100890001A404A6084F8410084F8425084F840507D
:1008A0000020D5E7FFE70220D2E70000002000800B
:1008B00000E800FE18BCBDE8E08F00002DE9FF4F06
:1008C00083B00446DDE9108790F84100DDF84890D8
:1008D0009A469346202874D15FEA080014D09FB14D
:1008E00094F8400001286CD0012084F84000FFF704
:1008F000FBFD0646012200901923D103204601F09A
:100900005BF9002871D103E04FF4007060646CE083
:10091000222084F84100402084F8420000256564CC
:10092000C4F8248067856563CDE9009653465A462E
:100930002046049901F0F8F810B184F8405054E0D2
:10094000618D3548FF274FF080784FF0007AFF29FE
:1009500004D927853A464346009005E0618D2185FC
:10096000009094F8282053462046049901F00EF98F
:100970004B46002204212046009601F01DF9A0BB41
:100980002068406A616A0870606A401C6062208D5D
:10099000401E81B22185608D401E6085608DD8B17A
:1009A000D1B94B46002280212046009601F004F97F
:1009B000D8B9608DFF2805D927853A46434600956A
:1009C00006E026E0608D2085009594F828205346A7
:1009D0002046049901F0DAF8608D0028C8D132462B
:1009E0004946204601F014F918B1012007B000F083
:1009F00017B821682020C86121684A68074B1A404F
:100A00004A6084F8410084F8425084F84050002045
:100A1000ECE70220EAE700000024008000E800FE86
:100A200030BCBDE8C08F000010B586B0044614216C
:100A30006846FFF704FC17492068884228D1164C05
:100A4000E06C40F00100E064E06C694600F00100F9
:100A500005904FF4C0600090122001900120029098
:100A600003200390042004904FF09040FFF760FCB7
:100A7000A06D40F40010A065A06D002200F40010ED
:100A8000059011461F2000F067F81F2000F056F86F
:100A900006B010BD005400400010024002488168BA
:100AA00002781144816070477800002010B500245E
:100AB000032000F071F8002000F008F808B10124CC
:100AC00001E000F025F8204610BD000070B50E4E84
:100AD00005460024307898B14FF47A71B1FBF0F0FC
:100AE0000A490968B1FBF0F000F0B6FD40B9102DDD
:100AF00006D200222946501E00F02EF8756000E054
:100B00000124204670BD00007800002084000020F1
:100B1000094808B5016E41F001010166016E01F05E
:100B200001010091816D41F080518165806D00F07F
:100B30008050009008BD000000100240002809DB32
:100B400000F01F02012191404009800000F1E020E7
:100B5000C0F8001170470000F0B40E4B1B680C4643
:100B6000C3F30223C3F10705042D00D90425191D81
:100B7000072901D2002300E0DB1E012606FA05F159
:100B8000491E214099409E40761E16403143F0BCDC
:100B900001F0E9BD0CED00E0064900F0070208682D
:100BA0004FF6FF03184040EA0220034A1043086052
:100BB000704700000CED00E00000FA051649B0F5A2
:100BC000007F0868C0F3412009D0022805D00868DA
:100BD00020F4C06040F48060086000207047012865
:100BE000FBD0086820F4C06040F4007008600B4837
:100BF0003222006850430A4AB0FBF2F0401C00E089
:100C0000401E4A69520501D50028F9D148694005BE
:100C1000E3D50320704700000070004084000020EE
:100C200040420F000248006800F4C06070470000B6
:100C3000007000400248016841F480710160704713
:100C4000007000400248016841F0040101607047F3
:100C5000001002402DE9F84F0446002700889C4D03
:100C60003E46000515D5E06B60B1B0F5000F04D02D
:100C7000B0F5400F2BD001270AE0E86840F480303F
:100C8000E86024E00021201D01F096F807001ED046
:100C90003E462068800338D5A86D4FF00008C0009C
:100CA00009D4A86D40F08050A865A86D4FF00108E8
:100CB00000F080500090DFF81CA2DAF8001041F438
:100CC0008071CAF80010FFF70FFC814610E0D5F8DC
:100CD0008800E16B20F440000843C5F88800D8E79D
:100CE000FFF702FCA0EB0900022801D9032704E06A
:100CF000DAF80000C005F3D5EFB33E46B8F1000FB7
:100D000003D0A86D20F08050A8652078C00707D0D8
:100D1000D5F88800216A20F003000843C5F8880050
:100D20002078800707D5D5F88800616A20F00C008C
:100D30000843C5F888002078800607D5D5F88800D4
:100D4000A16A20F440600843C5F888002088800527
:100D500007D5D5F88800616B20F440200843C5F81A
:100D600088002088400509D5D5F88800A16B20F4BB
:100D70004010084300E02EE0C5F8880020784006C7
:100D800007D5D5F88800E16A20F440500843C5F83B
:100D900088002088C00507D5D5F88800216B20F48D
:100DA00040300843C5F8880020884FF00067800471
:100DB0004FF080684ED5D5F88800216C20F0406057
:100DC0000843C5F88800206CB8423BD1E86840F47D
:100DD0008010E8603EE0D5F8900010F4407014D028
:100DE000216D814211D0D5F89000D5F8901020F4F3
:100DF000407041F48031C5F89010D5F8901021F47E
:100E00008031C5F89010C5F89000C00711D0FFF7E9
:100E10006BFB074641F2883907E000BFFFF764FB30
:100E2000C11B494501D9032668E7D5F89000800722
:100E3000F4D5D5F89000216D20F440700843C5F832
:100E400090005BE7404505D10121201D00F0B4FF73
:100E500000B106462068400317D5D5F88800616CBC
:100E600020F040600843C5F88800606CB84204D1A7
:100E7000E86840F48010E86007E0404505D10121B2
:100E8000201D00F099FF00B106462088400411D5CE
:100E9000D5F88800A16C20F040500843C5F88800C0
:100EA000A06CB0F1805F05D10221201D00F084FF0D
:100EB00000B106462088000406D555F8880FE16C7D
:100EC00020F0804008432860304600F005B800005C
:100ED000001002400070004018BCBDE8E08F000028
:100EE0002DE9F0470F46050058D0404E306800F01D
:100EF0000700B84209D2306820F00700384330605C
:100F0000306800F00700B84248D12878384CC00754
:100F10002CD06868032811D0022812D0216898B11B
:100F2000490500293ADAA16821F003010143A160D3
:100F3000FFF7DAFA804641F2883910E0216889012A
:100F4000EFE721688903ECE78907EAE7FFF7CCFAC6
:100F5000A0EB0801494502D90320BDE8F087A0684D
:100F6000696800F00C00B0EB810FEFD128788007A2
:100F700005D5A068A96820F0F0000843A06030689B
:100F800000F00700B8420BD9306820F00700384362
:100F90003060306800F00700B84201D00120DCE783
:100FA0002878400705D5A068E96820F4E060084388
:100FB000A0602878000706D5A068296920F4605051
:100FC00040EAC100A06000F03FF8A168094AC1F3FF
:100FD0000311515C01F01F01C84007490860074830
:100FE0000068BDE8F047FFF771BD00000020024037
:100FF0000010024018320008840000207C0000200D
:101000000548064900688968054AC1F30221515C18
:1010100001F01F01C840704784000020001002400A
:10102000583200080548064900688968054AC1F336
:10103000C221515C01F01F01C840704784000020AC
:10104000001002405832000870B5254900231846A8
:101050008A68CC6812F00C0204F00306214C4FEAB7
:10106000640509D00C2A05D0042A32D0082A00D100
:10107000284670BD012E10D10B681B0704D4D1F88F
:101080009430C3F3032302E00B68C3F30313164E3B
:1010900056F82330DAB10C2AEBD1C86800F003000F
:1010A000022818D0032818D01846CA68CB68C2F3A3
:1010B0000212C3F306234343521CB3FBF2F2C86887
:1010C000C0F34160401C4000B2FBF0F070BD184618
:1010D00070BD204670BD2046E7E72846E5E70000E2
:1010E000001002400024F400283200082DE9F843E3
:1010F00004006FD0FE4DA86800F00C06E86800F010
:1011000003072078C00664D576B10C2E01D1012FDB
:101110000AD0A069002828687AD040F00100286031
:10112000FFF7E2F980465DE02868800702D5A069F4
:101130000028DED0216A2868000703D5286800F05F
:10114000F00004E0D5F89400F02202EA1010814289
:1011500016D9084600F0C6FE00283BD1286840F0AA
:10116000080028602868216A20F0F0000843286001
:101170006868E16920F47F4040EA0120686016E079
:10118000286840F0080028602868216A20F0F000F4
:10119000084328606868E16920F47F4040EA012044
:1011A000686026B9206A00F09DFE0028D5D1FFF7BF
:1011B0004BFFA968CF4AC1F30311515C01F01F0135
:1011C000C840CD490860CD480068FFF77FFC002883
:1011D0007ED12EE0CAE000BFFFF786F9A0EB080041
:1011E000022876D828688007F6D5286840F00800DD
:1011F00028602868216A20F0F000084328606868A9
:10120000E16920F47F4040EA0120686011E0FFE7D7
:1012100020F001002860FFF767F9804606E000BF74
:10122000FFF762F9A0EB08000228DAD828688007E7
:10123000F6D42078C00740D0082E18D00C2E01D14B
:10124000032F14D06068B0F5803F17D0B0F5A02F01
:10125000286817D020F480302860286820F4802087
:1012600028606068E0B1FFF73FF9804614E0286825
:10127000800322D56068002878D01EE0286840F4FA
:101280008030EDE740F480202860F7E7FFF72CF985
:10129000A0EB08006428A4D828688003F6D50CE0E9
:1012A000FFF722F9804605E0FFF71EF9A0EB0800E2
:1012B000642896D828688003F6D4207880073BD528
:1012C000042E11D00C2E01D1022F0DD0E06801E0C8
:1012D000B6E1FFE0002828681ED040F48070286046
:1012E000FFF702F907460CE0286840050CD5E068D6
:1012F0000028C1D008E000BFFFF7F6F8C01B0228A5
:1013000093D828684005F7D56868217C20F0FE4016
:1013100040EA016068600FE020F480702860FFF709
:10132000E3F8074605E000BFFFF7DEF8C01B022820
:10133000B1D828684005F7D42078000729D560691E
:101340000028D5F8940012D040F00100C5F89400B0
:10135000FFF7CAF8074604E0FFF7C6F8C01B0228EB
:1013600099D8D5F894008007F6D512E02BE120F04B
:101370000100C5F89400FFF7B7F8074605E000BF85
:10138000FFF7B2F8C01B022885D8D5F89400800773
:10139000F6D42078400766D5A86D0027C00008D491
:1013A000A86D40F08050A865A86D012700F080501E
:1013B000009053480168C90512D40168814641F480
:1013C00080710160FFF790F8804605E0FFF78CF828
:1013D000A0EB080002287DD8D9F80000C005F5D59B
:1013E000A068012816D00528D5F8900017D020F065
:1013F0000100C5F89000D5F8900020F0040000BF6F
:10140000C5F89000A06841F28839C0B1FFF76CF8C8
:1014100080460FE0D5F8900040F00100F0E740F082
:101420000400C5F89000F5E7FFF75EF8A0EB0801AF
:1014300049454FD8D5F890008007F5D50EE0FFF765
:1014400053F8804606E000BFFFF74EF8A0EB080116
:1014500049453FD8D5F890008007F5D41FB1A86D55
:1014600020F08050A8652078800628D5606A002882
:10147000D5F8980012D040F00100C5F89800FFF7A9
:1014800033F8074605E000BFFFF72EF8C01B02281F
:1014900020D8D5F898008007F6D510E020F001009C
:1014A000C5F89800FFF720F8074604E0FFF71CF89E
:1014B000C01B02280ED8D5F898008007F6D4A06A81
:1014C000A8B1022824D00C2E7DD0286820F080708E
:1014D000286000E0B3E02868000103D4E86820F049
:1014E0000300E860E86807490840E8600CE09FE016
:1014F0000010024018320008840000207C00002008
:1015000000700040FFFFEEFEFEF7EEFF044699E09C
:10151000E868E26A00F00301914226D1216B00F0F5
:1015200070020901103991421FD1626B00F4FE4133
:10153000B1EB022F19D194F8382000F07841B1EBCB
:10154000C26F12D1A18F00F4C00249084905A1F56C
:101550000011914209D194F8401000F0C060490890
:101560004906A1F1007181424BD00C2E6FD0286842
:1015700040016CD4286820F080702860FEF7B4FF2A
:10158000064604E0FEF7B0FF801B022857D8286803
:101590008001F7D4F4E90B016FF00F0202EB0111A7
:1015A0000843218A5204490802EB4151A26841EAEA
:1015B00002210843217D4FF07E42490802EB416140
:1015C0000843217B00E042E040EAC160E968214A2B
:1015D00011400843E860286840F080702860E8689F
:1015E00040F08070E860FEF77FFF044605E000BF32
:1015F000FEF77AFF001B022821D828688001F7D562
:1016000023E02868800120D4286840F0807028609A
:10161000E86840F08070E860FEF766FF044604E08A
:10162000FEF762FF001B022809D828688001F7D561
:101630000BE000BFFEF758FF001B022802D9032071
:10164000BDE8F88328688001F4D40020F8E7012081
:10165000F6E700008C809D0110B5401EB0F1807F40
:1016600001D3012010BD4FF0E02460610F2160170D
:1016700001F079F80020A06107202061002010BD52
:10168000704770472DE9F04102680446D06911683F
:10169000936840F60F0528424FF0000505D18606F5
:1016A0007BD58E0679D5216E88E04D4F03F001067B
:1016B0000F40374371D0C70707D0CF0505D50127A5
:1016C0001762E26F42F00102E267820708D5DA078B
:1016D00006D0276802223A62E26F42F00402E26713
:1016E000420708D5DA0706D0236804221A62E26F9F
:1016F00042F00202E26702070AD501F020023243FB
:1017000006D0236808221A62E26F42F00802E267FC
:10171000020509D54A0107D523684FF400621A6211
:10172000E26F42F02002E267E26F002A2ED08006CC
:1017300005D5880603D5216E09B120468847E06F9C
:1017400021688968490602D410F0280F20D020466D
:1017500000F07EFE20688168490614D5816821F07A
:1017600040018160E06E70B11E498163E06EFEF75A
:10177000A5FD00280AD0E06E816B00E02046BDE8A0
:10178000F041084709E02046FFF77BFFBDE8F08104
:101790002046FFF776FFE567F8E7C60209D55B024A
:1017A00007D54FF4801010622046BDE8F041FFF7E6
:1017B00067BF030605D50B0603D5616E0029DDD191
:1017C000E4E74006E2D54806E0D51168204621F05E
:1017D0004001116020216167656600F048F9D5E796
:1017E000200100043D24000810B5040002D0606F01
:1017F00010B107E0012010BD002084F870002046E1
:1018000000F026F8242060672068016821F00101BB
:101810000160204600F02CFE0128ECD0606A10B177
:10182000204600F07BFD2068416821F49041416032
:101830002068816821F02A0181602068016841F0F8
:10184000010101602046BDE8104000F0CBBD000062
:1018500010B586B0044614216846FEF7F0FC164920
:101860002068884226D11548016E41F48041016606
:10187000016E01F480410591C16C41F00201C16427
:10188000C06C694600F002000590C0200090022064
:101890000190002002900320039007200490084844
:1018A000FEF746FD002211462520FFF755F92520B9
:1018B000FFF744F906B010BD0038014000100240A7
:1018C000000400482DE9F84F0446806F9A461646FA
:1018D0000D4620286BD1EDB1E6B194F870000128D7
:1018E00065D0012084F870004FF00008C4F87C80B7
:1018F0002220A067FEF7F8FDA4F858608146A4F8FE
:101900005A60A0684FF48053FF21984208D12269A1
:101910001AB11CE0012000F04CB840F2FF1116E0B3
:101920007F2290B1B0F1805F14D0A4F85C8000BF3A
:10193000B4F85C70984201D1206990B12E46002520
:1019400084F8708007F0FF0825E0266936B9A4F80E
:101950005C10EDE7216909B13F21F8E7A4F85C20AC
:10196000E6E70026ECE74B46002220212046CDF892
:1019700000A000F06FFE08B10320CCE72068808C47
:101980008EB100EA080006F8010B00BFB4F85A0057
:10199000401EA4F85A00B4F85A000028E3D12020D1
:1019A000A0670020B7E7384025F8020BEEE70220D9
:1019B000B1E718BCBDE8E08F2DE9F8430446406F5D
:1019C0001F4616460D4620284FD1CDB1C6B194F81A
:1019D0007000012849D0012084F870004FF0000801
:1019E000C4F87C8021206067FEF77EFDA4F850607B
:1019F0008146A4F85260A068B0F5805F03D004E08F
:101A00000120BDE8F883206928B12E465FF000056B
:101A100084F8708010E00026FAE78021204600F06C
:101A200019FEB8B9C6B116F8010B21680885B4F8DB
:101A30005200401EA4F85200B4F852004B464FF03A
:101A4000000200970028E8D14FF04001204600F046
:101A500001FE30B10320D4E735F8020BC0F30800D3
:101A6000E3E7202060670020CBE70220C9E770474A
:101A7000FEE700000148FEF791BD0000C400002011
:101A800001688A69D243920701D400228A62006801
:101A90008169C943C90703D0816941F001018161AE
:101AA000704700002DE9F0410446006890460E465C
:101AB0008069C043C00633D4002520272068806990
:101AC000C043800615D5701CF8D0FEF70DFDA0EBC5
:101AD0000800B04201D8002EF0D154F8440F40F075
:101AE000200044F804096770A57025700120BDE846
:101AF000F08121681020C8612068C7612046FFF787
:101B0000BFFF54F8440B4168064A11404160206809
:101B100040F0040044F820096777A5772577E5E7CA
:101B20000020E4E700E800FE2DE9F84304461646ED
:101B3000DDE9089714489846DAB200900023204661
:101B400000F024F83A464946204600F087F8B8B934
:101B5000F5B2B8F1010F08D02168300A88623A4620
:101B60004946204600F07AF850B9206885624B4615
:101B7000002240212046009700F01EF8002800D0E7
:101B80000120BDE8F883000000200080F0B5056862
:101B9000059C68684FF48066064FC1F3090106EAA8
:101BA000545641EA02413E431943B043214308439E
:101BB0006860F0BDFF63FF032DE9F0411D46174645
:101BC0000E460446DDF8188008E0681C06D0FEF7D3
:101BD0008BFCA0EB0800A8420BD855B120688069A7
:101BE00036EA000012D00020B842EED00020BDE856
:101BF000F08154F8440F40F0200044F804092020FC
:101C000060700020A07020700120F0E70120EBE759
:101C100070B516460D4604460DE03246294620466C
:101C2000FFF740FF08B1012070BDFEF75DFC801B8F
:101C3000A84207D835B120688069C0438006ECD43B
:101C4000002070BD54F8440F40F0200044F804090F
:101C5000202060700020A0702070E4E770B5164668
:101C60000D4604460FE0324629462046FFF71AFF8C
:101C700008B1012070BD681C05D0FEF735FC801B43
:101C8000A84207D835B120688069C0438007EAD4EC
:101C9000002070BD54F8440F40F0200044F80409BF
:101CA000202060700020A0702070E2E730B587B07F
:101CB00014216846FEF7C3FA1A48C16C41F00401CA
:101CC000C164C16C01F004010591C16C41F00101D6
:101CD000C164C16C01F001010591C16C41F00201C8
:101CE000C164C06C4FF0904500F0020005900022E6
:101CF00040212846FEF7F2FB00242020CDE9000415
:101D0000694628460294FEF713FB4020009001200C
:101D1000CDE90104694628460394FEF709FB07B0A4
:101D200030BD000000100240124810B5104901609B
:101D30000421416000210122C0E9021201614161D8
:101D40008161C1610162FEF731FC08B172B6FEE744
:101D500000210848FEF7CEFB08B172B6FEE700216D
:101D60000448FEF7F2FB002801D072B6FEE710BD72
:101D700000540040C40000200C4810B50A4901601E
:101D80004FF4E1314160002181600C22C160C0E963
:101D900004128161C16101624162FFF725FD0028E3
:101DA00001D072B6FEE710BD0038014010010020DE
:101DB000FEE7FEE7704700002DE9F041444C054680
:101DC0008846E0680026810728680DD0E16801F0A8
:101DD0000301814216D1A8B1E0686968C0F302101E
:101DE000401C88420ED120E0012804D0022805D0F2
:101DF000032807D108E02168890701E02168490527
:101E0000002907DB01265FE02168890302D42168ED
:101E10004903F5E7E1686A686FF00F0321F0730189
:101E200003EB021211430143E160206820F080605F
:101E30002060FEF759FB074605E000BFFEF754FBA4
:101E4000C01B022837D820680001F7D4B8F1000F72
:101E500018D0B8F1010F1DD0287D4FF07E41400809
:101E600001EB4060A96840EA01202169194A11404C
:101E700008432061206840F080602060FEF734FB5A
:101E800007461AE0A868297B000240EAC160216980
:101E9000114AECE7288A1149400801EB4050A96833
:101EA00040EA012021690E4AE1E700BFFEF71CFB72
:101EB000C01B022801D9032606E020680001F5D5E1
:101EC0002069A969084320613046BDE8F08100001F
:101ED00000100240FF80FFF9FF80FF070000E0FFD5
:101EE000FF809FFFF8B51C4D06460024A86DC0007A
:101EF00002D5FEF797FE0DE0A86D40F08050A86572
:101F0000A86D00F080500090FEF78CFEA96D21F0C6
:101F10008051A965B0F5007F04D0802E07D94FF01D
:101F200003040AE0802E08D9A02E01D804E001D1D4
:101F3000022402E0702E00D101240848016821F03B
:101F4000070121430160006800F00700A04201D0B2
:101F50000120F8BD0020F8BD001002400020024022
:101F600070B5802813D2402911D20B4B012401F007
:101F700007051E79AC40094BC90800EBC1100EB132
:101F800032B101E0012A03D0195CA143195470BD9C
:101F9000195C2143FAE7000058000020B801002036
:101FA00028B1FF224FF480610248FEF741B90022B8
:101FB000F8E70000B8010020014A10805180704706
:101FC0005800002010B500F03FFD44F620630122C8
:101FD00078215448FEF746FB08B1002010BD40F6BA
:101FE000C210401EFDD1AE220021782000F032FD4B
:101FF00020220021782000F02DFD102200217820E1
:1020000000F028FDB0220021782000F023FDC82236
:102010000021782000F01EFD00221146782000F0FB
:1020200019FD10220021782000F014FD402200212B
:10203000782000F00FFD81220021782000F00AFDB9
:10204000FF220021782000F005FDA1220021782048
:1020500000F000FDA6220021782000F0FBFCA82261
:102060000021782000F0F6FC3F220021782000F0CB
:10207000F1FCA4220021782000F0ECFCD322002106
:10208000782000F0E7FC00221146782000F0E2FC06
:10209000D5220021782000F0DDFCF02200217820FC
:1020A00000F0D8FCD9220021782000F0D3FC2222B5
:1020B0000021782000F0CEFCDA220021782000F008
:1020C000C9FC12220021782000F0C4FCDB22002190
:1020D000782000F0BFFC20220021782000F0BAFC1C
:1020E0008D220021782000F0B5FC142200217820F8
:1020F00000F0B0FCAF220021782000F0ABFC2E22D3
:102100000021782000F0A6FC0020FFF749FF00F036
:1021100071F8054800210180418001214171084684
:1021200010BD0000C4000020580000202DE9F04739
:10213000814625480D46924601882A781144802917
:1021400005D28046408869780844402802D30020A0
:10215000BDE8F08700262AE0A9F1200111FB00600C
:102160006A68002432F810701DE000BF07FA04F01E
:10217000000409D5B8F80210B8F800003144204432
:1021800089B280B252460BE0BAF1000F1AD0002299
:10219000B8F80210B8F800003144204489B280B287
:1021A000FFF7DEFE641C2878A042DFD8761C687832
:1021B000B042D1D8B8F800102A7848461144A8F89F
:1021C0000010C5E70122E3E75800002070B515466E
:1021D0000E46044609E02A463146FFF7A7FF21785C
:1021E000884201D0C8B270BD641C20780028F2D1AA
:1021F000C0B270BD70B5104D002400BF04F1B00036
:10220000C2B20021782000F025FC0022114678207F
:1022100000F020FC10220021782000F01BFC05EBD0
:10222000C41280234021782000F024FC641CE4B216
:10223000082CE3D370BD0000B80100207047FEF702
:102240002DBC000010B5ACB0442115A8FDF7F7FF78
:10225000142126A8FDF7F3FF54216846FDF7EFFF90
:10226000FEF7E8FC1B4850F8901F21F018010160B0
:1022700014201590012000241790CDE91B04602044
:102280001D901F9415A8FEF731FF08B172B6FEE746
:102290000F20CDE9260428942994002126A82A9409
:1022A000FEF71EFE08B172B6FEE7412000900894CA
:1022B0000B946846FEF7CEFC08B172B6FEE74FF409
:1022C0000070FEF77BFC08B172B6FEE7FEF7BAFCC1
:1022D0002CB010BD001002400D48016841F470019F
:1022E00001600C48016841F001010160002181603A
:1022F0000268094B1A4002608214C260026822F42C
:102300008022026081610249C00380390860704701
:1023100088ED00E000100240FFFFF6EA90F824107C
:10232000C90706D001684A68836A22F400321A435A
:102330004A6090F82410890706D501684A68C36A84
:1023400022F480321A434A6090F82410490706D5D7
:1023500001684A68036B22F480221A434A6090F8AD
:102360002410090706D501684A68436B22F400422D
:102370001A434A6090F82410C90606D501688A6895
:10238000836B22F480521A438A6090F824108906E5
:1023900006D501688A68C36B22F400521A438A602A
:1023A00090F82410490611D501684A68036C22F49C
:1023B00080121A434A60016CB1F5801F06D1016892
:1023C0004A68436C22F4C0021A434A6090F8241011
:1023D000090606D501684A68806C22F4002202438F
:1023E0004A607047F8B500260446C667FEF77CF8D9
:1023F0000546206800686FF07E47000708D52B4629
:1024000000224FF400112046009700F023F960B934
:102410002068006840070AD52B4600224FF480014F
:102420002046009700F016F908B10320F8BD2020DF
:102430006067A06784F870600020F8BD10B5806AFE
:102440000021A0F85A10A0F85210FFF71AF910BD99
:1024500001680A6822F490720A6001688A6822F0B2
:1024600001028A6020218167002101667047000017
:102470002DE9F0410446016880682269E369104350
:10248000626900251A4310436B4F0A686B4B1A4070
:1024900002430A6020684168E26821F44051114318
:1024A00041602168A069B94201D0226A10438A685C
:1024B00022F4306202438A606149236861488B429A
:1024C0000DD1D0F8880010F0030006D0012838D0D4
:1024D000022834D0032821D135E001211FE05A49D8
:1024E0008B420BD1D0F8880010F00C0025D00428C6
:1024F00027D0082823D00C2810D124E0BB420DD1CE
:10250000D0F8880010F4406017D0B0F5806F18D074
:10251000B0F5006F13D0B0F5406F14D010214B48C8
:1025200000264FF40042BB422FD171B1022912D0D4
:1025300004290DD0082973D125E00021EFE70221FD
:10254000EDE70421EBE70821E9E7FEF759FD01E09B
:10255000FEF77AFDF0B3626802EB420181425FD878
:10256000B0EB023F5CD8010E000273084FEA32075D
:10257000C01959410023FDF727FE354AA0F54071E7
:10258000914251D94CE01046E5E7E3694FF6EF7709
:10259000934229D1092943D2DFE801F005080E4210
:1025A0000B4242422400FEF72BFD04E0FEF73AFD09
:1025B00001E0FEF749FD68B14100606801EB5001A0
:1025C000B1FBF0F080B2A0F11001B94228D84FF66B
:1025D000F07100E02AE00140C0F3420001432068AE
:1025E000C16023E01046E7E7092919D2DFE801F0CE
:1025F00005080E180B1818181A00FEF701FD04E064
:10260000FEF710FD01E0FEF71FFD78B1616800EBF9
:102610005100B0FBF1F080B2A0F11001B94203D932
:10262000012503E01046F1E72168C86026662846C8
:102630006666BDE8F081000000800040F369FFEFAE
:102640000038014000100240004400400024F40023
:10265000FFFC0F002DE9F0479A4617460E46044648
:102660004FF000094FF02008089D39E0681C37D072
:10267000FDF73AFFA0EB0A00A84222D80DB320686C
:10268000016849072CD5C069C043000528D42168DA
:102690004FF4006008622068016821F4D071016085
:1026A0002068816821F001018160C4F87480C4F859
:1026B0007880C4F87C8000BF84F870900320BDE867
:1026C000F0872068016821F4D0710160206881687A
:1026D00021F001018160C4F87480C4F87880EBE7D0
:1026E0002068C06936EA000004D00020B842BDD09E
:1026F0000020E4E70120F9E708B54FF0FF3301229D
:1027000069461448FFF7DEF800204FF47A71401C48
:102710008842FCDB1149104B9DF8002008781A54C0
:10272000401CC0B208700A2810D1002008701E2179
:102730000A20FFF741FC012209490748FFF746FD3F
:10274000FFF758FD44F62060FDF7E0FD0148FEF775
:1027500099FF08BD10010020900100204F000020CB
:1027600050000020FEE70907090E002804DB00F1F5
:10277000E02080F80014704700F00F0000F1E02026
:1027800080F8141D704702E008C8121F08C1002A13
:10279000FAD170477047002001E001C1121F002AE2
:1027A000FBD170471CB502238DF8040064208DF81E
:1027B0000510009001AAA6210148FDF7E9FF1CBD04
:1027C000C40000203EB5114C64230122217810483A
:1027D000FDF748FF18B14FF47A70FDF797FD00F050
:1027E000EBF80A20FDF792FDAE202070074801218A
:1027F0006422C01C8DE807000B460022AF2104486C
:10280000FEF75CF8BDE83E4000F0E0B86000002054
:10281000C400002086B0FEF749F9FFF713FDFFF76B
:1028200045FAFFF781FAFFF7A7FAFFF7CBFF2F482A
:102830000068016841F0200101604FF0FF3325225C
:102840002B492A48FFF7B8F8FFF7BCFB00212D20E1
:10285000FFF7A8FF08212D20FFF7A4FF0121312059
:10286000FFF7A0FF00208DF804008DF805001F4839
:102870000A24022301AAD0214C380094FDF788FFD6
:1028800001208DF8080015208DF809001748022353
:1028900002AAD0214C380094FDF77AFF02208DF86F
:1028A0000C0047208DF80D001048022303AAD02108
:1028B0004C380094FDF76CFF11208DF810001220A9
:1028C0008DF814000948022304AAD0214C38009442
:1028D000FDF75EFF0548022305AAD0214C3800947D
:1028E000FDF756FF00F046F8FCE70000100100205D
:1028F0002A00002070B51D4D86B0AE20287001243E
:102900000A2603A88DE8510023460022AE2118486C
:10291000FDF7D4FF04A88DE8510001231A46AE212B
:102920001348FDF7CBFF05F1100419200621009490
:10293000CDE9011001230722AE210D48FDF7BEFFAE
:1029400020786178000440EA0120A1780843C0F3B0
:102950001100A860E0782179000440EA0120617943
:102960000843C0F31100E86006B070BD60000020AD
:10297000C40000202DE9F0410E4F00240C4D4FF013
:10298000904607F548780EE020213046FDF7A1FD7E
:102990000128F9D0FFF7AEFFA86847F82400E968DE
:1029A00048F82410641CA8788442EDDBBDE8F0816F
:1029B00060000020B80500200349AE2040220870C6
:1029C000092100F047B800006000002010B51D4C40
:1029D000AE20C0222070022100F03CF8002203212A
:1029E000207800F037F800220421207800F032F837
:1029F00000220521207800F02DF800220621207801
:102A000000F028F84F220821207800F023F862789F
:102A10000921207800F01EF827220A21207800F0F2
:102A200019F824220C21207800F014F824220D211A
:102A3000207800F00FF820787F22BDE810401021A8
:102A400000F008B8600000200148401EFDD170472A
:102A500090D003001CB502238DF804100A210091C8
:102A60008DF80520014601AA0148FDF791FE1CBD25
:102A7000C400002070B5C2B000248DF8041001A974
:102A800004E0155D0E19641C7570E4B29C42F8D325
:102A90000A2100915B1C01469BB201AA0248FDF786
:102AA00077FE42B070BD0000C400002000000000AE
:102AB0000000000000000000000000000000000016
:102AC0000010001000100010001000100000001096
:102AD000000000000028002800280000000000007E
:102AE000000000000000000000240024007C0024FE
:102AF0000048007C004800480000000000380054F6
:102B00000050003800140054005400380010000039
:102B10000020005400580030002800540014000821
:102B200000000000001000280028001000340048B9
:102B300000480034000000000010001000100000E9
:102B4000000000000000000000000000000800106D
:102B5000002000200020002000200020001000089D
:102B60000020001000080008000800080008000805
:102B700000100020001000380010002800000000A5
:102B80000000000000000000000000000010001025
:102B9000007C001000100000000000000000000099
:102BA00000000000000000000000001000100010F5
:102BB00000000000000000000000003800000000DD
:102BC0000000000000000000000000000000000005
:102BD00000000010000000000008000800100010B5
:102BE0000010001000200020000000000038004409
:102BF0000044005400440044004400380000000039
:102C000000100030005000100010001000100010E4
:102C100000000000003800440044000400080010D8
:102C20000020007C00000000003800440004001870
:102C300000040004004400380000000000080018F0
:102C4000002800280048007C000800080000000060
:102C5000007C00400040007800040004004400387C
:102C600000000000003800440040007800440044A8
:102C70000044003800000000007C00040008001040
:102C80000010002000200020000000000038004458
:102C900000440038004400440044003800000000B4
:102CA0000038004400440044003C00040044003864
:102CB0000000000000000000001000000000000004
:102CC00000000010000000000000000000000010E4
:102CD00000000000000000100010001000000000C4
:102CE000000C003000400030000C0000000000002C
:102CF000000000000000007C0000007C00000000DC
:102D0000000000000000000000600018000400182F
:102D100000600000000000000038004400040008CB
:102D200000100010000000100000000000380044F7
:102D3000004C0054005C00400040003800000000DF
:102D400000100028002800280028007C00440044CF
:102D50000000000000780044004400780044004473
:102D600000440078000000000038004400400040AB
:102D7000004000400044003800000000007000489F
:102D8000004400440044004400480070000000007B
:102D9000007C00400040007C004000400040007C7F
:102DA00000000000007C004000400078004000402F
:102DB0000040004000000000003800440040004097
:102DC000005C00440044003800000000004400445F
:102DD0000044007C00440044004400440000000023
:102DE0000038001000100010001000100010003813
:102DF00000000000000400040004000400040004BB
:102E0000004400380000000000440048005000600A
:102E1000005000480048004400000000004000400E
:102E200000400040004000400040007C00000000E6
:102E30000044006C006C0054004400440044004412
:102E40000000000000440064006400540054004C82
:102E5000004C0044000000000038004400440044DE
:102E600000440044004400380000000000780044A2
:102E70000044004400780040004000400000000092
:102E8000003800440044004400440044005400382A
:102E9000000400000078004400440044007800482A
:102EA00000480044000000000038004400400030AA
:102EB000000800040044003800000000007C0010FE
:102EC00000100010001000100010001000000000A2
:102ED00000440044004400440044004400440038DE
:102EE000000000000044004400440028002800289E
:102EF0000010001000000000004400440054005482
:102F00000054006C00280028000000000044002845
:102F100000280010001000280028004400000000D5
:102F20000044004400280028001000100010001089
:102F300000000000007C00040008001000100020C9
:102F40000040007C0000000000180010001000107D
:102F500000100010001000100010001800200020C9
:102F60000010001000100010000800080000000011
:102F700000300010001000100010001000100010B1
:102F8000001000300010002800280044000000005D
:102F90000000000000000000000000000000000031
:102FA0000000000000000000000000FE00200010F3
:102FB0000000000000000000000000000000000011
:102FC0000000000000380044003C0044004C003485
:102FD000000000000040004000580064004400442D
:102FE00000640058000000000000000000380044A9
:102FF00000400040004400380000000000040004CD
:103000000034004C00440044004C00340000000038
:103010000000000000380044007C004000440038FC
:1030200000000000000C0010007C001000100010D8
:103030000010001000000000000000000034004CF0
:1030400000440044004C003400040078004000407C
:1030500000580064004400440044004400000000A4
:103060000010000000700010001000100010001090
:1030700000000000001000000070001000100010A0
:1030800000100010001000E0004000400048005018
:103090000060005000480044000000000070001074
:1030A00000100010001000100010001000000000C0
:1030B00000000000007800540054005400540054F4
:1030C00000000000000000000058006400440044BC
:1030D00000440044000000000000000000380044EC
:1030E00000440044004400380000000000000000DC
:1030F0000058006400440044006400580040004050
:10310000000000000034004C00440044004C003437
:10311000000400040000000000580064004000406B
:1031200000400040000000000000000000380044A3
:10313000003000080044003800000000002000209B
:10314000007800200020002000200018000000006F
:10315000000000000044004400440044004C0034DF
:103160000000000000000000004400440028002887
:10317000002800100000000000000000005400546F
:103180000054006C0028002800000000000000002F
:103190000044002800100010002800440000000037
:1031A0000000000000440044002800280010001027
:1031B0000010006000000000007C000800100020EB
:1031C0000040007C000000000018001000100010FB
:1031D0000020002000100010001000180010001047
:1031E000001000100010001000100010001000105F
:1031F000003000100010001000080008001000103F
:10320000001000300000000000000074004C0000BE
:1032100000000000000000000000000000000000AE
:103220000102030406070809A0860100400D0300FF
:10323000801A060000350C0040420F0080841E00FA
:1032400000093D0000127A000024F40000366E01EF
:103250000048E801006CDC020000000001020304E9
:103260008032000800000020880000008627000847
:103270000833000888000020700F0000962700081F
:10328000000000000000000000000000000000003E
:10329000000000001400000000000000000000001A
:1032A000000000000000000000000D0A205961200D
:1032B000746F6C746F6D65657420616C66206168F5
:1032C0006C616E207765207361686C616E0A000026
:1032D000070A0000AC2A00080000000000000000FF
:1032E000AE0320000000000000000000000000000D
:1032F00000000000000000000100000010000000BD
:083300000000000000093D007F
:040000050800018D61
:00000001FF
