:020000040800F2
:1000000040080020A5010008DF1E0008891B000829
:10001000DD1E0008FF04000899260008000000000B
:100020000000000000000000000000003521000872
:100030000105000800000000E11E00083921000849
:10004000BF010008BF010008BF010008BF01000890
:10005000BF0100085D200008BF010008BF010008C3
:10006000BF010008BF010008BF010008BF01000870
:10007000BF010008BF010008BF010008BF01000860
:10008000BF010008BF010008BF010008BF01000850
:10009000BF010008BF010008BF010008BF01000840
:1000A000BF010008BF010008BF010008BF01000830
:1000B000BF01000800000000000000008D1B0008C8
:1000C000BF0100080000000000000000BF010008A0
:1000D0000000000051260008BF01000800000000D9
:1000E000BF010008BF010008000000000000000080
:1000F0000000000000000000000000000000000000
:10010000000000000000000000000000BF01000827
:100110000000000000000000BF010008BF0100084F
:10012000BF010008BF010008BF010008BF010008AF
:10013000BF010008000000000000000000000000F7
:10014000BF010008BF010008BF010008BF0100088F
:10015000BF010008BF010008BF010008BF0100087F
:10016000BF010008BF010008BF0100080000000037
:10017000BF010008BF0100080000000000000000EF
:10018000BF010008BF010008BF010008DFF810D060
:1001900000F078F90048004745270008AFF30080D9
:1001A000400800200648804706480047FEE7FEE773
:1001B000FEE7FEE7FEE7FEE7FEE7FEE7FEE7FEE717
:1001C000312200088D0100082DE9F05F054600206E
:1001D00092469B4688460646814640241BE02846B8
:1001E00041464746224600F0DFF853465A46C01AB9
:1001F000914110D311461846224600F0C6F82D1A38
:1002000067EB01084F4622460120002100F0BDF8AF
:1002100017EB00094E41201EA4F10104DFDC484623
:1002200031462A46434600F000B830BCBDE8C09FC6
:10023000D2B201E000F8012B491EFBD27047002228
:10024000F6E710B513460A4604461946FFF7F0FFD5
:10025000204610BD2DE9FE4F81EA030404F000445E
:1002600021F0004100944FF0000B23F0004350EACE
:1002700001045ED052EA03045BD0C3F30A54C1F315
:100280000A552C44A4F2F3340194A0FB0254C1F3A8
:10029000130141F48011C3F3130343F4801301FBF2
:1002A000024400FB034E840A970A44EA815447EA59
:1002B0008357A4FB076802958D0A05FB07854FEA63
:1002C000932C04FB0C542705029D4FEA065847EA7D
:1002D0001637B5EB08056EEB070C870E920E47EA52
:1002E000811742EA8312A7FB0201B6EB0B0164EB14
:1002F00000042B0D43EA0C335E1844EB1C50DA4625
:100300005146E7FB0201C5F313044FEA0B3343EAFE
:1003100014534FEA0432019C43EA0603A4F10C048F
:100320000294009CCDE900B400F05DF803B000F049
:1003300003B800200146F9E730BCBDE8C08F0EB518
:1003400040F2334102910021CDE900110A460B46EB
:1003500000F049F803B000BDC1F30A5210B5C1F373
:10036000130140F2FF3341F480119A4201DA002078
:1003700010BD40F233439A42A2F2334203DC5242B0
:1003800000F012F810BD904010BD202A04DB203A86
:1003900000FA02F1002070479140C2F1200320FAD8
:1003A00003F3194390407047202A04DB203A21FAD6
:1003B00002F00021704721FA02F3D040C2F120027E
:1003C000914008431946704710B5141E73F100049C
:1003D00008DA401C41F1000192185B411A4301D137
:1003E00020F0010010BD2DE9F04D92469B4611B161
:1003F000B1FA81F202E0B0FA80F220329046FFF7C3
:10040000C4FF04460F4640EA0A0041EA0B01534686
:100410005A46084313D0114653EA010019D0C8F1D7
:1004200040025046FFF7C0FF05460E46504659466B
:100430004246FFF7AAFF084305D0012004E020460A
:100440003946BDE8F08D0020054346EAE0762C43AE
:1004500037430A986305E40AA0EB08000022FD0A6E
:1004600044EA47540A3002D500200146E9E7010575
:1004700010196941DDE9084500196941BDE8F04DF1
:10048000A2E70000064C074D06E0E06840F00103DB
:1004900094E8070098471034AC42F6D3FFF77AFE91
:1004A000202A0008402A000870B58C1810F8015B5B
:1004B00015F0070301D110F8013B2A1106D110F8FD
:1004C000012B03E010F8016B01F8016B5B1EF9D101
:1004D0002B0705D40023521E0DD401F8013BFAE787
:1004E00010F8013BCB1A921C03E013F8015B01F8F2
:1004F000015B521EF9D5A142D8D3002070BDFEE7A2
:100500007047000010B50C4C21680868002812D014
:10051000A0608268E260C268226100686061086869
:10052000006880472068016849680160A068BDE8EC
:10053000104002F0D1B810BD0000002010B590F8B6
:1005400025100024022903D00421C16301241AE0EC
:1005500001680A6822F00E020A6001680A6822F047
:1005600001020A6090F84410036C01F01C020121A2
:1005700001FA02F25A6080F82510002180F8241058
:10058000816B01B18847204610BD00002DE9FC4F6A
:10059000DFF880A1002301250AF1040B03244FF0AA
:1005A0000F0C0BF1040EAEE005FA03F632406FD0EB
:1005B0004F68012F05D0022F03D0112F01D0122F29
:1005C00017D1D0F808905F0004FA07F829EA080963
:1005D0000097D1F80C8008FA07F848EA0908C0F833
:1005E00008804768B7430E79C6F300169E403E4325
:1005F0004660C6684FEA430804FA08F7BE4301970D
:100600008F6807FA08F73743C7604E68022E01D09B
:10061000122E13D1DE0800EB86060096366A5F07BD
:10062000FF0E0CFA07F926EA0906D1F8109009FA2C
:1006300007F949EA0609009EC6F820900768019E5E
:10064000B7430E7906F0030606FA08F63E43066045
:100650004E68F60056D5304E376E47F001073766C4
:10066000366E23F0030706F0010600962B4E3E443B
:10067000B146B6689F074FEA17780CFA08F7BE43F1
:10068000B0F1904F05D0264FB84204D1012708E0C1
:1006900038E0002705E0234FB84201D1022700E0EF
:1006A000072707FA08F73743C9F80870DAF8006037
:1006B0005746D1F8048096435FEAC83800D5164300
:1006C0003E60DBF800605F46D1F8048096435FEA45
:1006D000883800D516433E60DEF800607746D1F8D2
:1006E000048096435FEAC82800D516433E60094F50
:1006F0000C373E68D1F8048096435FEA882800D51D
:1007000016433E605B1C0A6832FA03F67FF44CAF76
:1007100000F00AB80004014000100240000001404F
:1007200000040048000800481CBCBDE8E08F0AB186
:10073000816170478162704701488068704700009E
:100740005801002090F84120202A24D190F8402020
:10075000012A20D0012280F84020242280F8412064
:100760000268136823F0010313600268136823F41E
:1007700080531360026813680B43136001680A68B2
:1007800042F001020A60202180F84110002180F827
:100790004010084670470220704790F84120202AF8
:1007A00022D190F84020012A1ED0012280F840205A
:1007B000242280F841200268136823F001031360AB
:1007C0000268136823F4706343EA01211160016831
:1007D0000A6842F001020A60202180F841100021DD
:1007E00080F84010084670470220704702689169FF
:1007F0001268436B002B00D01847704770B5040097
:1008000004D094F84100002510B106E0012070BD2D
:1008100084F84050204600F079F9242084F8410003
:100820002068016821F0010101606068216820F002
:10083000706008612068816821F400418160E0688F
:100840000128A06807D040F4044021688860E0686F
:10085000022803D006E040F40040F6E721684FF498
:100860000060486020684168114A11434160206877
:10087000C16821F40041C160D4E904010843A169C1
:1008800040EA01202168C860D4E9070108432168D3
:1008900008602068016841F0010101606564202062
:1008A00084F84100256384F84250002070BD0000A8
:1008B000008000022DE9F84F044690F84100DDF871
:1008C00028A01F4690468B4620287ED194F84000F1
:1008D00001287AD0012084F84000FFF72DFF06465A
:1008E000012200901923D103204601F0BFF9E0BB9B
:1008F000222084F84100102084F84200002565641D
:10090000C4F8248067856563618D3148FF274FF007
:1009100080784FF00079FF2903D927853A46009067
:1009200039E0618D218500903AE05946204601F07A
:1009300087F913E001F0C6F9B8B92068406A616A26
:100940000870606A401C6062208D401E80B2208565
:10095000618D491E6185618D01B168B1608D32463E
:10096000002851462046E5D100E002E001F0ECF914
:10097000D0B1012000F030B853460022802120463B
:10098000009601F073F90028F3D1608DFF2804D997
:1009900027853A4600954346C7E7608D2085009538
:1009A00094F828204B46C0E721682020C8612168C0
:1009B0004A68084B1A404A6084F8410084F8425063
:1009C00084F840500020D5E7FFE70220D2E700007E
:1009D0000024008000E800FE18BCBDE8E08F0000A5
:1009E0002DE9F84F044690F84100DDF828A01F4695
:1009F00090468B4620287ED194F8400001287AD07A
:100A0000012084F84000FFF797FE0646012200907F
:100A10001923D103204601F029F9E0BB212084F8F5
:100A20004100102084F8420000256564C4F8248049
:100A300067856563618D3148FF274FF080784FF0FF
:100A40000079FF2903D927853A46009039E0618D66
:100A5000218500903AE05946204601F0F1F813E074
:100A600001F098F9B8B9606A216800788862606A14
:100A7000401C6062608D401E6085208D401E80B2EB
:100A80002085618D01B168B1608D324600285146E4
:100A90002046E5D100E002E001F056F9D0B1012096
:100AA00000F030B85346002280212046009601F025
:100AB000DDF80028F3D1608DFF2804D927853A4658
:100AC00000954346C7E7608D2085009594F828205F
:100AD0004B46C0E721682020C86121684A68084B5E
:100AE0001A404A6084F8410084F8425084F840502B
:100AF0000020D5E7FFE70220D2E7000000200080B9
:100B000000E800FE18BCBDE8E08F000010B586B01C
:100B1000044614216846FFF792FB17492068884273
:100B200028D1164CE06C40F00100E064E06C6946AE
:100B300000F0010005904FF4C06000901220019079
:100B40000120029003200390042004904FF0904075
:100B5000FFF71CFDA06D40F40010A065A06D002201
:100B600000F40010059011461F2000F06FF81F20C0
:100B700000F05EF806B010BD0054004000100240C6
:100B80000248816802781144816070475801002052
:100B900010B50024032000F079F8002000F008F8D8
:100BA00008B1012401E000F025F8204610BD000046
:100BB00070B50E4E05460024307898B14FF47A7126
:100BC000B1FBF0F00A490968B1FBF0F000F0D0FD8C
:100BD00040B9102D06D200222946501E00F036F8EA
:100BE000756000E00124204670BD0000580100201F
:100BF000640100200D4808B5016E41F00101016655
:100C0000016E01F001010091816D41F0805181651B
:100C1000806D002200F0805000901146052000F009
:100C200015F8BDE80840052000F002B800100240A9
:100C3000002809DB00F01F020121914040098000DB
:100C400000F1E020C0F8001170470000F0B40E4B36
:100C50001B680C46C3F30223C3F10705042D00D91A
:100C60000425191D072901D2002300E0DB1E0126FF
:100C700006FA05F1491E214099409E40761E164015
:100C80003143F0BC01F009BD0CED00E0064900F075
:100C9000070208684FF6FF03184040EA0220034AA3
:100CA00010430860704700000CED00E00000FA05FA
:100CB0001649B0F5007F0868C0F3412009D002282A
:100CC00005D0086820F4C06040F48060086000200F
:100CD00070470128FBD0086820F4C06040F4007021
:100CE00008600B483222006850430A4AB0FBF2F019
:100CF000401C00E0401E4A69520501D50028F9D188
:100D000048694005E3D503207047000000700040AB
:100D10006401002040420F000248006800F4C060F7
:100D200070470000007000400248016841F4807183
:100D300001607047007000400248016841F0040102
:100D400001607047001002402DE9F84F044600276B
:100D500000889C4D3E46000515D5E06B60B1B0F5AE
:100D6000000F04D0B0F5400F2BD001270AE0E8684F
:100D700040F48030E86024E00021201D01F0D8F824
:100D800007001ED03E462068800338D5A86D4FF07E
:100D90000008C00009D4A86D40F08050A865A86D77
:100DA0004FF0010800F080500090DFF81CA2DAF844
:100DB000001041F48071CAF80010FFF7BDFC8146B5
:100DC00010E0D5F88800E16B20F440000843C5F836
:100DD0008800D8E7FFF7B0FCA0EB0900022801D992
:100DE000032704E0DAF80000C005F3D5EFB33E4670
:100DF000B8F1000F03D0A86D20F08050A8652078CE
:100E0000C00707D0D5F88800216A20F00300084306
:100E1000C5F888002078800707D5D5F88800616A72
:100E200020F00C000843C5F888002078800607D51C
:100E3000D5F88800A16A20F440600843C5F888000E
:100E40002088800507D5D5F88800616B20F4402004
:100E50000843C5F888002088400509D5D5F88800E2
:100E6000A16B20F44010084300E02EE0C5F8880094
:100E70002078400607D5D5F88800E16A20F4405074
:100E80000843C5F888002088C00507D5D5F8880034
:100E9000216B20F440300843C5F8880020884FF0CB
:100EA000006780044FF080684ED5D5F88800216C2B
:100EB00020F040600843C5F88800206CB8423BD160
:100EC000E86840F48010E8603EE0D5F8900010F447
:100ED000407014D0216D814211D0D5F89000D5F822
:100EE000901020F4407041F48031C5F89010D5F88E
:100EF000901021F48031C5F89010C5F89000C0071B
:100F000011D0FFF719FC074641F2883907E000BF0E
:100F1000FFF712FCC11B494501D9032668E7D5F844
:100F200090008007F4D5D5F89000216D20F4407032
:100F30000843C5F890005BE7404505D10121201D1D
:100F400000F0F6FF00B106462068400317D5D5F83B
:100F50008800616C20F040600843C5F88800606C30
:100F6000B84204D1E86840F48010E86007E04045EA
:100F700005D10121201D00F0DBFF00B106462088CD
:100F8000400411D5D5F88800A16C20F040500843EA
:100F9000C5F88800A06CB0F1805F05D10221201D4A
:100FA00000F0C6FF00B106462088000406D555F8BB
:100FB000880FE16C20F0804008432860304600F044
:100FC00005B80000001002400070004018BCBDE8E9
:100FD000E08F00002DE9F0470F46050058D0404E45
:100FE000306800F00700B84209D2306820F00700EE
:100FF00038433060306800F00700B84248D12878A4
:10100000384CC0072CD06868032811D0022812D0B1
:10101000216898B1490500293ADAA16821F0030155
:101020000143A160FFF788FB804641F2883910E058
:1010300021688901EFE721688903ECE78907EAE77E
:10104000FFF77AFBA0EB0801494502D90320BDE870
:10105000F087A068696800F00C00B0EB810FEFD159
:101060002878800705D5A068A96820F0F00008431B
:10107000A060306800F00700B8420BD9306820F05B
:10108000070038433060306800F00700B84201D0F4
:101090000120DCE72878400705D5A068E96820F43E
:1010A000E0600843A0602878000706D5A068296999
:1010B00020F4605040EAC100A06000F045F8A1684B
:1010C000094AC1F30311515C01F01F01C8400749EF
:1010D000086007480068BDE8F047FFF769BD0000F9
:1010E0000020024000100240D829000864010020BE
:1010F0005C01002001480068704700006401002086
:101100000548064900688968054AC1F30221515C17
:1011100001F01F01C8407047640100200010024028
:10112000182A00080548064900688968054AC1F37D
:10113000C221515C01F01F01C840704764010020CA
:1011400000100240182A000870B5254900231846EF
:101150008A68CC6812F00C0204F00306214C4FEAB6
:10116000640509D00C2A05D0042A32D0082A00D1FF
:10117000284670BD012E10D10B681B0704D4D1F88E
:101180009430C3F3032302E00B68C3F30313164E3A
:1011900056F82330DAB10C2AEBD1C86800F003000E
:1011A000022818D0032818D01846CA68CB68C2F3A2
:1011B0000212C3F306234343521CB3FBF2F2C86886
:1011C000C0F34160401C4000B2FBF0F070BD184617
:1011D00070BD204670BD2046E7E72846E5E70000E1
:1011E000001002400024F400E82900082DE9F8432B
:1011F00004006FD0FE4DA86800F00C06E86800F00F
:1012000003072078C00664D576B10C2E01D1012FDA
:101210000AD0A069002828687AD040F00100286030
:10122000FFF78AFA80465DE02868800702D5A0694A
:101230000028DED0216A2868000703D5286800F05E
:10124000F00004E0D5F89400F02202EA1010814288
:1012500016D9084600F004FF00283BD1286840F06A
:10126000080028602868216A20F0F0000843286000
:101270006868E16920F47F4040EA0120686016E078
:10128000286840F0080028602868216A20F0F000F3
:10129000084328606868E16920F47F4040EA012043
:1012A000686026B9206A00F0DBFE0028D5D1FFF780
:1012B0004BFFA968CF4AC1F30311515C01F01F0134
:1012C000C840CD490860CD480068FFF771FC002890
:1012D0007ED12EE0CAE000BFFFF72EFAA0EB080097
:1012E000022876D828688007F6D5286840F00800DC
:1012F00028602868216A20F0F000084328606868A8
:10130000E16920F47F4040EA0120686011E0FFE7D6
:1013100020F001002860FFF70FFA804606E000BFCA
:10132000FFF70AFAA0EB08000228DAD8286880073D
:10133000F6D42078C00740D0082E18D00C2E01D14A
:10134000032F14D06068B0F5803F17D0B0F5A02F00
:10135000286817D020F480302860286820F4802086
:1013600028606068E0B1FFF7E7F9804614E028687C
:10137000800322D56068002878D01EE0286840F4F9
:101380008030EDE740F480202860F7E7FFF7D4F9DC
:10139000A0EB08006428A4D828688003F6D50CE0E8
:1013A000FFF7CAF9804605E0FFF7C6F9A0EB080091
:1013B000642896D828688003F6D4207880073BD527
:1013C000042E11D00C2E01D1022F0DD0E06801E0C7
:1013D000B6E1FFE0002828681ED040F48070286045
:1013E000FFF7AAF907460CE0286840050CD5E0682D
:1013F0000028C1D008E000BFFFF79EF9C01B0228FB
:1014000093D828684005F7D56868217C20F0FE4015
:1014100040EA016068600FE020F480702860FFF708
:101420008BF9074605E000BFFFF786F9C01B0228CD
:10143000B1D828684005F7D42078000729D560691D
:101440000028D5F8940012D040F00100C5F89400AF
:10145000FFF772F9074604E0FFF76EF9C01B022898
:1014600099D8D5F894008007F6D512E02BE120F04A
:101470000100C5F89400FFF75FF9074605E000BFDB
:10148000FFF75AF9C01B022885D8D5F894008007C9
:10149000F6D42078400766D5A86D0027C00008D490
:1014A000A86D40F08050A865A86D012700F080501D
:1014B000009053480168C90512D40168814641F47F
:1014C00080710160FFF738F9804605E0FFF734F9D5
:1014D000A0EB080002287DD8D9F80000C005F5D59A
:1014E000A068012816D00528D5F8900017D020F064
:1014F0000100C5F89000D5F8900020F0040000BF6E
:10150000C5F89000A06841F28839C0B1FFF714F91E
:1015100080460FE0D5F8900040F00100F0E740F081
:101520000400C5F89000F5E7FFF706F9A0EB080105
:1015300049454FD8D5F890008007F5D50EE0FFF764
:10154000FBF8804606E000BFFFF7F6F8A0EB0801C5
:1015500049453FD8D5F890008007F5D41FB1A86D54
:1015600020F08050A8652078800628D5606A002881
:10157000D5F8980012D040F00100C5F89800FFF7A8
:10158000DBF8074605E000BFFFF7D6F8C01B0228CE
:1015900020D8D5F898008007F6D510E020F001009B
:1015A000C5F89800FFF7C8F8074604E0FFF7C4F84D
:1015B000C01B02280ED8D5F898008007F6D4A06A80
:1015C000A8B1022824D00C2E7DD0286820F080708D
:1015D000286000E0B3E02868000103D4E86820F048
:1015E0000300E860E86807490840E8600CE09FE015
:1015F00000100240D8290008640100205C0100208E
:1016000000700040FFFFEEFEFFF796F8044699E0F9
:10161000E868E26A00F00301914226D1216B00F0F4
:1016200070020901103991421FD1626B00F4FE4132
:10163000B1EB022F19D194F8382000F07841B1EBCA
:10164000C26F12D1A18F00F4C00249084905A1F56B
:101650000011914209D194F8401000F0C06049088F
:101660004906A1F1007181424BD00C2E6FD0286841
:1016700040016CD4286820F080702860FFF75CF887
:10168000064604E0FFF758F8801B022857D8286860
:101690008001F7D4F4E90B016FF00F0202EB0111A6
:1016A0000843218A5204490802EB4151A26841EAE9
:1016B00002210843217D4FF07E42490802EB41613F
:1016C0000843217B00E042E040EAC160E968214A2A
:1016D00011400843E860286840F080702860E8689E
:1016E00040F08070E860FFF727F8044605E000BF8F
:1016F000FFF722F8001B022821D828688001F7D5BF
:1017000023E02868800120D4286840F08070286099
:10171000E86840F08070E860FFF70EF8044604E0E7
:10172000FFF70AF8001B022809D828688001F7D5BE
:101730000BE000BFFFF700F8001B022802D90320CE
:10174000BDE8F88328688001F4D40020F8E7012080
:10175000F6E700008C809D014FF0E0210428086925
:1017600003D020F004000861704740F00400FAE75D
:1017700010B5401EB0F1807F01D3012010BD4FF0A5
:10178000E02460610F21601700F087FF0020A06156
:1017900007202061002010BD704770472DE9F041FF
:1017A00002680446D0691168936840F60F05284224
:1017B0004FF0000505D186067BD58E0679D5216EC2
:1017C00088E04D4F03F001060F40374371D0C70743
:1017D00007D0CF0505D501271762E26F42F001025D
:1017E000E267820708D5DA0706D0276802223A6244
:1017F000E26F42F00402E267420708D5DA0706D03A
:10180000236804221A62E26F42F00202E2670207D2
:101810000AD501F02002324306D0236808221A625A
:10182000E26F42F00802E267020509D54A0107D5D6
:1018300023684FF400621A62E26F42F02002E2670E
:10184000E26F002A2ED0800605D5880603D5216ECA
:1018500009B120468847E06F21688968490602D4AB
:1018600010F0280F20D0204600F09EFD20688168EF
:10187000490614D5816821F040018160E06E70B1A5
:101880001E498163E06EFEF759FE00280AD0E06E23
:10189000816B00E02046BDE8F041084709E02046A2
:1018A000FFF77BFFBDE8F0812046FFF776FFE56795
:1018B000F8E7C60209D55B0207D54FF48010106225
:1018C0002046BDE8F041FFF767BF030605D50B06CC
:1018D00003D5616E0029DDD1E4E74006E2D5480674
:1018E000E0D51168204621F0400111602021616798
:1018F000656600F048F9D5E720010004952300084B
:1019000010B5040002D0606F10B107E0012010BDD7
:10191000002084F87000204600F026F8242060673C
:101920002068016821F001010160204600F04CFDB3
:101930000128ECD0606A10B1204600F09BFC2068C2
:10194000416821F4904141602068816821F02A01BA
:1019500081602068016841F0010101602046BDE816
:10196000104000F0EBBC000010B586B00446142116
:101970006846FEF764FC16492068884226D115485F
:10198000016E41F480410166016E01F480410591D0
:10199000C16C41F00201C164C06C694600F00200F4
:1019A0000590C020009002200190002002900320AA
:1019B0000390072004900848FEF7E8FD0022114636
:1019C0002520FFF743F92520FFF732F906B010BDB7
:1019D0000038014000100240000400482DE9F84F93
:1019E0000446806F9A4616460D4620286BD1EDB10D
:1019F000E6B194F87000012865D0012084F87000E9
:101A00004FF00008C4F87C802220A067FEF794FE07
:101A1000A4F858608146A4F85A60A0684FF4805337
:101A2000FF21984208D122691AB11CE0012000F080
:101A30004CB840F2FF1116E07F2290B1B0F1805F08
:101A400014D0A4F85C8000BFB4F85C70984201D157
:101A5000206990B12E46002584F8708007F0FF08B9
:101A600025E0266936B9A4F85C10EDE7216909B1D3
:101A70003F21F8E7A4F85C20E6E70026ECE74B46B8
:101A8000002220212046CDF800A000F08FFD08B1F3
:101A90000320CCE72068808C8EB100EA080006F8AD
:101AA000010B00BFB4F85A00401EA4F85A00B4F865
:101AB0005A000028E3D12020A0670020B7E7384073
:101AC00025F8020BEEE70220B1E718BCBDE8E08F75
:101AD0002DE9F8430446406F1F4616460D46202860
:101AE0004FD1CDB1C6B194F87000012849D0012082
:101AF00084F870004FF00008C4F87C8021206067F3
:101B0000FEF71AFEA4F850608146A4F85260A0685F
:101B1000B0F5805F03D004E00120BDE8F8832069C0
:101B200028B12E465FF0000584F8708010E0002692
:101B3000FAE78021204600F039FDB8B9C6B116F8A1
:101B4000010B21680885B4F85200401EA4F8520029
:101B5000B4F852004B464FF0000200970028E8D13D
:101B60004FF04001204600F021FD30B10320D4E7C2
:101B700035F8020BC0F30800E3E72020606700207F
:101B8000CBE70220C9E77047FEE700000148FEF7F7
:101B90002DBE00007001002001688A69D2439207BF
:101BA00001D400228A6200688169C943C90703D051
:101BB000816941F001018161704700002DE9F04128
:101BC0000446006890460E468069C043C00633D480
:101BD0000025202720688069C043800615D5701C29
:101BE000F8D0FEF7A9FDA0EB0800B04201D8002E06
:101BF000F0D154F8440F40F0200044F80409677015
:101C0000A57025700120BDE8F08121681020C86111
:101C10002068C7612046FFF7BFFF54F8440B4168B6
:101C2000064A11404160206840F0040044F8200951
:101C30006777A5772577E5E70020E4E700E800FE71
:101C4000F0B50568059C68684FF48066064FC1F3DF
:101C5000090106EA545641EA02413E431943B043A2
:101C6000214308436860F0BDFF63FF032DE9F041A5
:101C70001D4617460E460446DDF8188008E0681C2D
:101C800006D0FEF759FDA0EB0800A8420BD855B1CD
:101C90002068806936EA000012D00020B842EED0F9
:101CA0000020BDE8F08154F8440F40F0200044F8D3
:101CB0000409202060700020A07020700120F0E74F
:101CC0000120EBE72DE9F041002690460F4604463F
:101CD000202525E0424639462046FFF76FFF78BBB6
:101CE00020688069C043800613D420688169C94395
:101CF000490701D4218DC1B9C56154F8440B41682D
:101D0000104A1140416044F820696577A67726772C
:101D100016E0FEF711FDA0EB0800B84208D83FB16D
:101D200020688069C0434007D4D40020BDE8F0811A
:101D300054F8440F40F0200044F804096570267000
:101D40000120F3E700E800FE70B516460D46044694
:101D50000DE0324629462046FFF730FF08B101204A
:101D600070BDFEF7E9FC801BA84207D835B120689A
:101D70008069C0438006ECD4002070BD54F8440F45
:101D800040F0200044F80409202060700020A0707A
:101D90002070E4E770B516460D4604460FE0324663
:101DA00029462046FFF70AFF08B1012070BD681CD4
:101DB00005D0FEF7C1FC801BA84207D835B12068CA
:101DC0008069C0438007EAD4002070BD54F8440FF6
:101DD00040F0200044F80409202060700020A0702A
:101DE0002070E2E710B586B014216846FEF727FAA6
:101DF0001548C16C41F00401C164C16C01F00401DB
:101E00000591C16C41F00101C164C16C01F0010197
:101E10000591C16C41F00201C164C06C0B4C00F033
:101E200002000590002208212046FEF780FC0820D1
:101E3000009001200021CDE901010391694620466F
:101E4000FEF7A4FB06B010BD0010024000040048DD
:101E5000124810B51049016011494160002101226A
:101E6000C0E90212016141618161C1610162FEF755
:101E7000C5FC08B172B6FEE700210848FEF762FC17
:101E800008B172B6FEE700210448FEF786FC002880
:101E900001D072B6FEE710BD005400407001002072
:101EA000BB7C70000C4810B50A4901604FF4E13169
:101EB0004160002181600C22C160C0E9041281618F
:101EC000C16101624162FFF71BFD002801D072B6BB
:101ED000FEE710BD00380140BC010020FEE7FEE730
:101EE0007047000070B504460E46102000F052FC0A
:101EF0004FF0FF310460C0E902610C4909680C68C9
:101F00002CB1A268B24206DD4460086070BD086072
:101F10000021416070BDA168B14201DD446003E071
:101F200025466468002CF6D1686070BD0000002072
:101F30002DE9F041444C05468846E06800268107BB
:101F400028680DD0E16801F00301814216D1A8B1E3
:101F5000E0686968C0F30210401C88420ED120E09E
:101F6000012804D0022805D0032807D108E0216801
:101F7000890701E021684905002907DB01265FE0A8
:101F80002168890302D421684903F5E7E1686A689A
:101F90006FF00F0321F0730103EB021211430143B1
:101FA000E160206820F080602060FEF7C5FB0746F6
:101FB00005E000BFFEF7C0FBC01B022837D8206831
:101FC0000001F7D4B8F1000F18D0B8F1010F1DD0FF
:101FD000287D4FF07E41400801EB4060A96840EA4F
:101FE00001202169194A114008432061206840F00E
:101FF00080602060FEF7A0FB07461AE0A868297BF6
:10200000000240EAC1602169114AECE7288A1149BF
:10201000400801EB4050A96840EA012021690E4ABE
:10202000E1E700BFFEF788FBC01B022801D90326A9
:1020300006E020680001F5D52069A9690843206100
:102040003046BDE8F081000000100240FF80FFF93B
:10205000FF80FF070000E0FFFF809FFF7047000048
:10206000F8B51C4D06460024A86DC00002D5FEF749
:1020700053FE0DE0A86D40F08050A865A86D00F0FB
:1020800080500090FEF748FEA96D21F08051A965AF
:10209000B0F5007F04D0802E07D94FF003040AE08A
:1020A000802E08D9A02E01D804E001D1022402E03C
:1020B000702E00D101240848016821F00701214356
:1020C0000160006800F00700A04201D00120F8BDC7
:1020D0000020F8BD001002400020024070B5054607
:1020E000102000F057FB124A51690160D168C0E925
:1020F000021545B151680C685CB1E268AA420CDD7A
:102100004460086070BDD1685069BDE87040FFF759
:10211000E9BE08600021416070BDE168A94201DDAF
:10212000446003E026466468002CF6D1706070BD00
:10213000000000207047000010B500210348FFF7A1
:10214000D1FEBDE81040FEF71BBD00006D29000860
:1021500010B5ACB044216846FEF771F8142126A8EA
:10216000FEF76DF8542111A8FEF769F8FEF7DCFDC3
:102170002C4850F8901F21F01801016014200090A5
:1021800001200290002460210690CDE90741022140
:10219000CDE90A100C9010200D900720CDE90E011A
:1021A00068461091FFF722F808B172B6FEE70F20DB
:1021B00026900320CDE927042994012126A82A94FA
:1021C000FEF708FF08B172B6FEE74120119019949E
:1021D0001C9411A8FEF7B8FD08B172B6FEE74FF4E3
:1021E0000070FEF765FD08B172B6FEE7FEF7A4FDCC
:1021F000FEF780FFFEF7A3F89FED0B1B53EC112BAE
:10220000FEF728F8FEF7A8F8FFF7B2FA0420FFF768
:10221000A3FA00221146501EFEF718FDFEF78CFDB2
:102220002CB010BD001002409A9999999999A93F34
:102230000D48016841F4700101600C48016841F0EB
:1022400001010160002181600268094B1A400260AF
:102250008214C260026822F4802202608161024915
:10226000C00380390860704788ED00E0001002402C
:10227000FFFFF6EA90F82410C90706D001684A6803
:10228000836A22F400321A434A6090F824108907C6
:1022900006D501684A68C36A22F480321A434A604C
:1022A00090F82410490706D501684A68036B22F4A8
:1022B00080221A434A6090F82410090706D5016865
:1022C0004A68436B22F400421A434A6090F8241093
:1022D000C90606D501688A68836B22F480521A43C6
:1022E0008A6090F82410890606D501688A68C36B55
:1022F00022F400521A438A6090F82410490611D53E
:1023000001684A68036C22F480121A434A60016C27
:10231000B1F5801F06D101684A68436C22F4C002FF
:102320001A434A6090F82410090606D501684A68E5
:10233000806C22F4002202434A607047F8B5002600
:102340000446C667FEF7F8F90546206800686FF096
:102350007E47000708D52B4600224FF40011204687
:10236000009700F023F960B92068006840070AD59B
:102370002B4600224FF480012046009700F016F90A
:1023800008B10320F8BD20206067A06784F8706062
:102390000020F8BD10B5806A0021A0F85A10A0F8FE
:1023A0005210FFF7FAF910BD01680A6822F4907222
:1023B0000A6001688A6822F001028A602021816730
:1023C00000210166704700002DE9F04104460168D4
:1023D00080682269E3691043626900251A4310434B
:1023E0006B4F0A686B4B1A4002430A6020684168D1
:1023F000E26821F44051114341602168A069B9426B
:1024000001D0226A10438A6822F4306202438A6053
:102410006149236861488B420DD1D0F8880010F0E3
:10242000030006D0012838D0022834D0032821D157
:1024300035E001211FE05A498B420BD1D0F88800CA
:1024400010F00C0025D0042827D0082823D00C2811
:1024500010D124E0BB420DD1D0F8880010F44060C8
:1024600017D0B0F5806F18D0B0F5006F13D0B0F56D
:10247000406F14D010214B4800264FF40042BB425D
:102480002FD171B1022912D004290DD0082973D19E
:1024900025E00021EFE70221EDE70421EBE7082129
:1024A000E9E7FEF72DFE01E0FEF74EFEF0B36268AD
:1024B00002EB420181425FD8B0EB023F5CD8010ED3
:1024C000000273084FEA3207C01959410023FDF793
:1024D0007BFE354AA0F54071914251D94CE010463F
:1024E000E5E7E3694FF6EF77934229D1092943D213
:1024F000DFE801F005080E420B4242422400FEF7DD
:10250000FFFD04E0FEF70EFE01E0FEF71DFE68B1E0
:102510004100606801EB5001B1FBF0F080B2A0F126
:102520001001B94228D84FF6F07100E02AE00140CE
:10253000C0F3420001432068C16023E01046E7E792
:10254000092919D2DFE801F005080E180B18181830
:102550001A00FEF7D5FD04E0FEF7E4FD01E0FEF70A
:10256000F3FD78B1616800EB5100B0FBF1F080B28F
:10257000A0F11001B94203D9012503E01046F1E7AB
:102580002168C860266628466666BDE8F0810000BE
:1025900000800040F369FFEF003801400010024066
:1025A000004400400024F400FFFC0F002DE9F04738
:1025B0009A4617460E4604464FF000094FF0200891
:1025C000089D39E0681C37D0FEF7B6F8A0EB0A008A
:1025D000A84222D80DB32068016849072CD5C069EC
:1025E000C043000528D421684FF4006008622068C9
:1025F000016821F4D07101602068816821F0010137
:102600008160C4F87480C4F87880C4F87C8000BF0E
:1026100084F870900320BDE8F0872068016821F4F9
:10262000D07101602068816821F001018160C4F8E7
:102630007480C4F87880EBE72068C06936EA00004F
:1026400004D00020B842BDD00020E4E70120F9E723
:1026500008B54FF0FF33012269460B48FFF7BEF97A
:102660000B489DF80010094A0368D1540168491CC1
:1026700001600068052803D100210648FFF732FCFD
:102680000148FFF78BF808BDBC0100205300002073
:102690003C010020BD280008FEE70907090E0028BC
:1026A00004DB00F1E02080F80014704700F00F0018
:1026B00000F1E02080F8141D704702E008C8121FE6
:1026C00008C1002AFAD170477047002001E001C11B
:1026D000121F002AFBD1704710B5002821D0114BE2
:1026E0000022001F196803E0814203D80A464968A6
:1026F0000029F9D152B11368841A9C4204D10068B0
:1027000018441060104602E0506000E0186039B1D3
:1027100002680B1A934203D10B681A44026049689D
:10272000416010BD6801002010B5042000F032F8AF
:10273000034C2060042000F02DF8606010BD000004
:1027400000000020FEF724FAFFF702FDFFF74AFB26
:10275000FFF77EFBFFF7A6FB0B480068016841F01E
:1027600020010160FFF7E0FF4FF0FF33C02207496F
:102770000548FFF7ADF902210548FFF7B3FB00BF9D
:10278000FDF7C0FEFCE70000BC010020580000205F
:1027900001280008F0B50B30154D20F0070100248A
:1027A000144A0FE003688B420BD38B4205D95E1AA3
:1027B00043184768C3E9006700E04368136002C03C
:1027C00004E0021D10680028ECD12046002802D148
:1027D000286808B10020F0BD064A07481060074A83
:1027E000121A22F00702C0E9002401202860D7E76E
:1027F0006C010020680100204402002040040020F9
:10280000FEB511208DF8080012208DF80400234831
:102810000068016841F0200101600A24012302AA36
:10282000D0211F480094FEF7DBF801230DF10902C7
:10283000D1211B480094FEF73DF81A4D9DF8090080
:102840002860012301AAD02115480094FEF7C8F89A
:1028500001230DF10502D12111480094FEF72AF859
:1028600011489DF8051001602C6810490E6800227F
:102870000F4BB44208DC2C6809688C4209D100680F
:102880000C490968884204DD012018600A4802608A
:1028900000E01A601E20FFF721FCFEBDBC010020F5
:1028A000700100204C010020500100204001002058
:1028B00048010020440100201800002070B5244C7D
:1028C0004FF0FF352078303809282ED8607830282E
:1028D0002BD3392829D8A0782E2826D1E078302883
:1028E00023D3392821D8207930281ED339281CD861
:1028F0002B46152217491848FFF7EAF82078617827
:10290000303800EB80026FF02F0000EB42021144E0
:10291000124A1160E1782279303901EB810100EB34
:1029200041000F491044086006E00A492B46222264
:1029300015310948FFF7CCF80A4900202B460860FA
:10294000BDE87040212208490348FFF7C1B80000E4
:10295000530000201C000020BC010020400100208A
:10296000440100203C0100201801002070B51648E9
:1029700001681648012905D115490A68012A03D0C2
:1029800001220A60002202E000220A6001220821DE
:10299000FDF7CDFE0F4D2868046811E0E068401E89
:1029A000E06000280BDCA1682068FFF79BFA29682B
:1029B0006068086020466468FFF78EFE00E0646887
:1029C000002CEBD170BD000048010020000400483D
:1029D000540100200400002000000000000000005E
:1029E0000102030406070809A0860100400D030048
:1029F000801A060000350C0040420F0080841E0043
:102A000000093D0000127A000024F40000366E0137
:102A10000048E801006CDC02000000000102030431
:102A2000402A00080000002070010000A8040008EF
:102A3000082B000870010020D0060000CA260008FC
:102A4000011C181520285448524553484F4C442027
:102A5000555044415445442915302057524F4E4754
:102A600020464F524D41542C20504C454153452057
:102A700054525920414741494E29222EFC0D0A2D1E
:102A80000108151054656D65706572617475726525
:102A9000204D6F6E69746F722618080D0A596F7594
:102AA0002061231815616C6C6F77656420746F204A
:102AB000656E7465722074686504480B726573688E
:102AC0006F6C6420666F1269277E0D0A74656D60F5
:102AD0003B696E1D2B666F1E2C696E672FA8136DE8
:102AE00061742078782E78780D0A506C6561736572
:102AF0002C59893D1B3A20C0091E226102171E3243
:082B000001821093093D000061
:040000050800018D61
:00000001FF
