:020000040800F2
:1000000028060020A5010008DD0D00083D0D0008B0
:10001000D90D000811020008E112000800000000DC
:10002000000000000000000000000000DD0F0008DC
:100030001502000800000000E10D0008DF0F0008B5
:10004000BF010008BF010008BF010008BF01000890
:10005000BF010008BF010008BF010008BF01000880
:10006000BF010008BF010008BF010008BF01000870
:10007000BF010008BF010008BF010008BF01000860
:10008000BF010008BF010008BF010008BF01000850
:10009000BF010008BF010008BF010008BF01000840
:1000A000BF010008BF010008BF010008BF01000830
:1000B000BF0100080000000000000000BF010008B0
:1000C000BF0100080000000000000000BF010008A0
:1000D00000000000BF010008BF0100080000000090
:1000E000BF010008BF010008000000000000000080
:1000F0000000000000000000000000000000000000
:10010000000000000000000000000000BF01000827
:100110000000000000000000BF010008BF0100084F
:10012000BF010008BF010008BF010008BF010008AF
:10013000BF010008000000000000000000000000F7
:10014000BF010008BF010008BF010008BF0100088F
:10015000BF010008BF010008BF010008BF0100087F
:10016000BF010008BF010008BF0100080000000037
:10017000BF010008BF0100080000000000000000EF
:10018000BF010008BF010008BF010008DFF810D060
:1001900000F02CF80048004749130008AFF3008036
:1001A000280600200648804706480047FEE7FEE78D
:1001B000FEE7FEE7FEE7FEE7FEE7FEE7FEE7FEE717
:1001C000B91000088D010008D2B201E000F8012B3F
:1001D000491EFBD270470022F6E710B513460A46C7
:1001E00004461946FFF7F0FF204610BD064C074DA8
:1001F00006E0E06840F0010394E8070098471034F7
:10020000AC42F6D3FFF7C6FF681400088814000854
:1002100000BFFEE7704710B540F20000C2F20000D8
:100220000068006800B910BD40F20000C2F2000092
:100230000068006840F20801C2F20001086040F264
:100240000001C2F20001096809680868804740F2AD
:100250000000C2F2000000680068406840F200013F
:10026000C2F200010968086000BFDCE772B600BF97
:10027000FEE700002DE9FC4FDFF880A100230125F7
:100280000AF1040B03244FF00F0C0BF1040EAEE047
:1002900005FA03F632406FD04F68012F05D0022FC8
:1002A00003D0112F01D0122F17D1D0F808905F0082
:1002B00004FA07F829EA08090097D1F80C8008FA2F
:1002C00007F848EA0908C0F808804768B7430E797C
:1002D000C6F300169E403E434660C6684FEA430898
:1002E00004FA08F7BE4301978F6807FA08F7374307
:1002F000C7604E68022E01D0122E13D1DE0800EB2B
:1003000086060096366A5F07FF0E0CFA07F926EAA2
:100310000906D1F8109009FA07F949EA0609009E82
:10032000C6F820900768019EB7430E7906F00306D1
:1003300006FA08F63E4306604E68F60056D5304E83
:10034000376E47F001073766366E23F0030706F075
:10035000010600962B4E3E44B146B6689F074FEA11
:1003600017780CFA08F7BE43B0F1904F05D0264F2E
:10037000B84204D1012708E038E0002705E0234F08
:10038000B84201D1022700E0072707FA08F73743F0
:10039000C9F80870DAF800605746D1F8048096432F
:1003A0005FEAC83800D516433E60DBF800605F4660
:1003B000D1F8048096435FEA883800D516433E6042
:1003C000DEF800607746D1F8048096435FEAC828DB
:1003D00000D516433E60094F0C373E68D1F80480C3
:1003E00096435FEA882800D516433E605B1C0A6886
:1003F00032FA03F67FF44CAF00F00AB80004014073
:1004000000100240000001400004004800080048BD
:100410001CBCBDE8E08F0AB1816170478162704702
:1004200001488068704700000C0000200248816885
:1004300002781144816070470C00002010B5002440
:10044000032000F071F8002000F008F808B1012442
:1004500001E000F025F8204610BD000070B50E4EFA
:1004600005460024307898B14FF47A71B1FBF0F072
:100470000A490968B1FBF0F000F04CFC40B9102DBE
:1004800006D200222946501E00F02EF8756000E0CA
:100490000124204670BD00000C0000201800002040
:1004A00008B500BF4FF48050C4F20200006E40F067
:1004B00001004FF48051C4F2020108660846006E44
:1004C00000F00100009000BF00BF00BF0846806D33
:1004D00040F0805088650846806D00F080500090A4
:1004E00000BF00BF08BD0000F0B40E4B1B680C46F7
:1004F000C3F30223C3F10705042D00D90425191DF8
:10050000072901D2002300E0DB1E012606FA05F1CF
:10051000491E214099409E40761E16403143F0BC52
:1005200000F0E0BE0CED00E0064900F007020868AC
:100530004FF6FF03184040EA0220034A10430860C8
:10054000704700000CED00E00000FA051649B0F518
:10055000007F0868C0F3412009D0022805D0086850
:1005600020F4C06040F480600860002070470128DB
:10057000FBD0086820F4C06040F4007008600B48AD
:100580003222006850430A4AB0FBF2F0401C00E0FF
:10059000401E4A69520501D50028F9D14869400535
:1005A000E3D50320704700000070004018000020D1
:1005B00040420F000248006800F4C060704700002D
:1005C000007000400248016841F48071016070478A
:1005D000007000400248016841F00401016070476A
:1005E000001002402DE9F0470F46050058D0404E5C
:1005F000306800F00700B84209D2306820F00700E8
:1006000038433060306800F00700B84248D128789D
:10061000384CC0072CD06868032811D0022812D0AB
:10062000216898B1490500293ADAA16821F003014F
:100630000143A160FFF7F4FE804641F2883910E0E3
:1006400021688901EFE721688903ECE78907EAE778
:10065000FFF7E6FEA0EB0801494502D90320BDE8FB
:10066000F087A068696800F00C00B0EB810FEFD153
:100670002878800705D5A068A96820F0F000084315
:10068000A060306800F00700B8420BD9306820F055
:10069000070038433060306800F00700B84201D0EE
:1006A0000120DCE72878400705D5A068E96820F438
:1006B000E0600843A0602878000706D5A068296993
:1006C00020F4605040EAC100A06000F01BF8A1686F
:1006D000094AC1F30311515C01F01F01C8400749E9
:1006E000086007480068BDE8F047FFF7B7BE0000A4
:1006F00000200240001002402814000818000020CA
:100700001000002070B52549002318468A68CC687F
:1007100012F00C0204F00306214C4FEA640509D0E4
:100720000C2A05D0042A32D0082A00D1284670BDF0
:10073000012E10D10B681B0704D4D1F89430C3F3F9
:10074000032302E00B68C3F30313164E56F823305D
:10075000DAB10C2AEBD1C86800F00300022818D0E7
:10076000032818D01846CA68CB68C2F30212C3F334
:1007700006234343521CB3FBF2F2C868C0F3416046
:10078000401C4000B2FBF0F070BD184670BD204622
:1007900070BD2046E7E72846E5E70000001002406C
:1007A0000024F400381400082DE9F84304006FD049
:1007B000FE4DA86800F00C06E86800F003072078FA
:1007C000C00664D576B10C2E01D1012F0AD0A069E4
:1007D000002828687AD040F001002860FFF720FE4A
:1007E00080465DE02868800702D5A0690028DED039
:1007F000216A2868000703D5286800F0F00004E0AB
:10080000D5F89400F02202EA1010814216D9084669
:1008100000F03AFB00283BD1286840F0080028602F
:100820002868216A20F0F000084328606868E169C0
:1008300020F47F4040EA0120686016E0286840F01C
:10084000080028602868216A20F0F000084328602A
:100850006868E16920F47F4040EA0120686026B9B9
:10086000206A00F011FB0028D5D1FFF74BFFA968E3
:10087000CF4AC1F30311515C01F01F01C840CD49BB
:100880000860CD480068FFF7E9FD00287ED12EE022
:10089000CAE000BFFFF7C4FDA0EB0800022876D82D
:1008A00028688007F6D5286840F008002860286886
:1008B000216A20F0F000084328606868E16920F4AC
:1008C0007F4040EA0120686011E0FFE720F001006E
:1008D0002860FFF7A5FD804606E000BFFFF7A0FDFA
:1008E000A0EB08000228DAD828688007F6D4207820
:1008F000C00740D0082E18D00C2E01D1032F14D0E1
:100900006068B0F5803F17D0B0F5A02F286817D0E9
:1009100020F480302860286820F4802028606068F7
:10092000E0B1FFF77DFD804614E02868800322D502
:100930006068002878D01EE0286840F48030EDE739
:1009400040F480202860F7E7FFF76AFDA0EB08007D
:100950006428A4D828688003F6D50CE0FFF760FD72
:10096000804605E0FFF75CFDA0EB0800642896D800
:1009700028688003F6D4207880073BD5042E11D058
:100980000C2E01D1022F0DD0E06801E0B6E1FFE0AE
:10099000002828681ED040F480702860FFF740FDD2
:1009A00007460CE0286840050CD5E0680028C1D057
:1009B00008E000BFFFF734FDC01B022893D8286869
:1009C0004005F7D56868217C20F0FE4040EA0160D0
:1009D00068600FE020F480702860FFF721FD074673
:1009E00005E000BFFFF71CFDC01B0228B1D8286836
:1009F0004005F7D42078000729D560690028D5F88C
:100A0000940012D040F00100C5F89400FFF708FDF3
:100A1000074604E0FFF704FDC01B022899D8D5F86B
:100A200094008007F6D512E02BE120F00100C5F814
:100A30009400FFF7F5FC074605E000BFFFF7F0FC68
:100A4000C01B022885D8D5F894008007F6D42078FA
:100A5000400766D5A86D0027C00008D4A86D40F0F7
:100A60008050A865A86D012700F080500090534881
:100A70000168C90512D40168814641F480710160A2
:100A8000FFF7CEFC804605E0FFF7CAFCA0EB0800AC
:100A900002287DD8D9F80000C005F5D5A068012846
:100AA00016D00528D5F8900017D020F00100C5F821
:100AB0009000D5F8900020F0040000BFC5F8900029
:100AC000A06841F28839C0B1FFF7AAFC80460FE068
:100AD000D5F8900040F00100F0E740F00400C5F8C0
:100AE0009000F5E7FFF79CFCA0EB080149454FD8C3
:100AF000D5F890008007F5D50EE0FFF791FC804611
:100B000006E000BFFFF78CFCA0EB080149453FD889
:100B1000D5F890008007F5D41FB1A86D20F0805063
:100B2000A8652078800628D5606A0028D5F8980046
:100B300012D040F00100C5F89800FFF771FC07469D
:100B400005E000BFFFF76CFCC01B022820D8D5F8D9
:100B500098008007F6D510E020F00100C5F8980055
:100B6000FFF75EFC074604E0FFF75AFCC01B0228B3
:100B70000ED8D5F898008007F6D4A06AA8B102284C
:100B800024D00C2E7DD0286820F08070286000E0F2
:100B9000B3E02868000103D4E86820F00300E860AF
:100BA000E86807490840E8600CE09FE00010024058
:100BB00028140008180000201000002000700040D9
:100BC000FFFFEEFEFFF72CFC044699E0E868E26ABE
:100BD00000F00301914226D1216B00F0700209015F
:100BE000103991421FD1626B00F4FE41B1EB022F2C
:100BF00019D194F8382000F07841B1EBC26F12D1CE
:100C0000A18F00F4C00249084905A1F500119142E5
:100C100009D194F8401000F0C06049084906A1F1DC
:100C2000007181424BD00C2E6FD0286840016CD4EB
:100C3000286820F080702860FFF7F2FB064604E089
:100C4000FFF7EEFB801B022857D828688001F7D4F5
:100C5000F4E90B016FF00F0202EB01110843218A46
:100C60005204490802EB4151A26841EA02210843BB
:100C7000217D4FF07E42490802EB41610843217B10
:100C800000E042E040EAC160E968214A11400843BF
:100C9000E860286840F080702860E86840F0807064
:100CA000E860FFF7BDFB044605E000BFFFF7B8FBB7
:100CB000001B022821D828688001F7D523E0286886
:100CC000800120D4286840F080702860E86840F0F7
:100CD0008070E860FFF7A4FB044604E0FFF7A0FB88
:100CE000001B022809D828688001F7D50BE000BF57
:100CF000FFF796FB001B022802D90320BDE8F8830A
:100D000028688001F4D40020F8E70120F6E700000D
:100D10008C809D0110B5401EB0F1807F01D3012071
:100D200010BD4FF0E02460610F21601700F0DAFA87
:100D30000020A06107202061002010BD00BFFEE759
:100D400000B587B0142102A8FFF745FA00BF4FF4A1
:100D50008050C4F20200C06C40F004004FF4805197
:100D6000C4F20201C8640846C06C00F0040001909F
:100D700000BF00BF00BF0846C06C40F00100C8645F
:100D80000846C06C00F00100019000BF00BF00BF2A
:100D90000846C06C40F00200C8640846C06C00F011
:100DA0000200019000BF00BF002208214FF48060C4
:100DB000C4F60000FFF72FFB0820029001200390EB
:100DC00000200490059002A94FF48060C4F6000052
:100DD000FFF750FA07B000BD00BFFEE700BFFEE717
:100DE00070472DE9F04780460E464FF0000910206D
:100DF00000F0E4FA0446C4F800804FF0FF30E060F1
:100E0000A66040F20000C2F200000068006840B92D
:100E100040F20000C2F20000006804600020606040
:100E200030E040F20000C2F2000000680068806814
:100E3000B0420DDD40F20000C2F200000068006820
:100E4000606040F20000C2F200000068046019E037
:100E500040F20000C2F200000068056809E0A868DE
:100E6000B04204DD4FF0010965607C6001E02F466F
:100E70006D68B9F1000F01D1002DF0D1B9F1000F6B
:100E800000D17C60BDE8F087F8B51C4D0646002413
:100E9000A86DC00002D5FFF78DFB0DE0A86D40F0F6
:100EA0008050A865A86D00F080500090FFF782FB8D
:100EB000A96D21F08051A965B0F5007F04D0802E86
:100EC00007D94FF003040AE0802E08D9A02E01D8DC
:100ED00004E001D1022402E0702E00D10124084870
:100EE000016821F0070121430160006800F007005C
:100EF000A04201D00120F8BD0020F8BD0010024042
:100F0000002002402DE9F04106464FF00008102075
:100F100000F054FA044640F20800C2F200000068F3
:100F20000068206040F20800C2F20000006880689B
:100F3000A060E6607EB940F20802C2F200021268C8
:100F4000916840F20802C2F2000212681068FFF7CE
:100F500048FFBDE8F08140F20400C2F200000068E2
:100F6000006840B940F20400C2F20000006804606A
:100F70000020606030E040F20400C2F2000000682F
:100F80000068C068B0420DDD40F20400C2F200000B
:100F900000680068606040F20400C2F2000000686F
:100FA000046019E040F20400C2F200000068056825
:100FB00009E0E868B04204DD4FF0010865607C603C
:100FC00001E02F466D68B8F1000F01D1002DF0D17E
:100FD000B8F1000F00D17C6000BFBAE7704710B5D0
:100FE00040F20400C2F200000068046811E0E0680A
:100FF000401EE060E06800280ADCA1682068FFF776
:10100000F0FE40F20401C2F2000160680968086065
:101010006468002CEBD1FFF709FA10BD00B597B05A
:10102000442106A8FFF7D7F8142101A8FFF7D3F849
:10103000FFF7C8FA41F29000C4F20200006820F005
:1010400018004FF48051C4F20201C1F8900014203E
:101050000690012008900C9000200D9060200E90CA
:10106000022010900121119112911021139107215A
:10107000149102211591169106A8FFF795FB08B16E
:10108000FFF7F4F80F200190032002900020039056
:1010900004900590012101A8FFF7A4FA08B1FFF719
:1010A000E5F84FF40070FFF751FA08B1FFF7DEF8EA
:1010B000FFF790FA17B000BD0D48016841F47001C8
:1010C00001600C48016841F001010160002181606C
:1010D0000268094B1A4002608214C260026822F45E
:1010E0008022026081610249C00380390860704734
:1010F00088ED00E000100240FFFFF6EA10B5012283
:1011000008214FF48060C4F60000FFF784F9002442
:1011100000E0641C4AF22010C0F207008442F8DBB1
:10112000002208214FF48060C4F60000FFF773F935
:10113000002400E0641C4AF22010C0F20700844240
:10114000F8DB1E20FFF7DEFE10BD70B5002522E0A3
:10115000012208214FF48060C4F60000FFF75BF91C
:10116000002400E0641C4AF22010C0F20700844210
:10117000F8DB002208214FF48060C4F60000FFF77E
:101180004AF9002400E0641C4AF22010C0F2070073
:101190008442F8DB6D1C022DDADB002400E0641CC5
:1011A00044F64030C0F24C008442F8DB70BD70B5AC
:1011B000002522E0012208214FF48060C4F60000DF
:1011C000FFF729F9002400E0641C4AF22010C0F265
:1011D00007008442F8DB002208214FF48060C4F647
:1011E0000000FFF718F9002400E0641C4AF2201008
:1011F000C0F207008442F8DB6D1C032DDADB00240B
:1012000000E0641C44F64030C0F24C008442F8DB3D
:1012100070BD70B5002522E0012208214FF48060E6
:10122000C4F60000FFF7F7F8002400E0641C4AF25F
:101230002010C0F207008442F8DB002208214FF49E
:101240008060C4F60000FFF7E6F8002400E0641CAC
:101250004AF22010C0F207008442F8DB6D1C042D16
:10126000DADB002400E0641C44F64030C0F24C009D
:101270008442F8DB70BD70B5002522E00122082110
:101280004FF48060C4F60000FFF7C5F8002400E0CA
:10129000641C4AF22010C0F207008442F8DB0022EE
:1012A00008214FF48060C4F60000FFF7B4F8002472
:1012B00000E0641C4AF22010C0F207008442F8DB10
:1012C0006D1C052DDADB002400E0641C44F6403080
:1012D000C0F24C008442F8DB2820FFF713FE70BDFB
:1012E00000BFFEE70907090E002804DB00F1E0203B
:1012F00080F80014704700F00F0000F1E02080F843
:10130000141D704702E008C8121F08C1002AFAD154
:1013100070477047002001E001C1121F002AFBD175
:10132000704710B5042000F049F840F20001C2F205
:1013300000010860042000F041F840F20401C2F20C
:101340000001086010BD0000FFF778F8FFF766FEA7
:10135000FFF7F6FC44F2FF70C0F2E8104FF0E02116
:10136000486107200861FFF7DCFF052141F2FD001D
:10137000C0F60000FFF735FD002141F24B10C0F62A
:101380000000FFF72EFD042141F2AF10C0F600006F
:10139000FFF727FD012141F21320C0F60000FFF7FF
:1013A00020FD022141F27720C0F60000FFF719FD71
:1013B00062B601E0FEF72FFFFCE70000F0B50B304E
:1013C000154D20F007010024144A0FE003688B42FA
:1013D0000BD38B4205D95E1A43184768C3E90067EF
:1013E00000E04368136002C004E0021D106800289A
:1013F000ECD12046002802D1286808B10020F0BDB9
:10140000064A07481060074A121A22F00702C0E98C
:10141000002401202860D7E7200000201C000020C5
:101420002C00002028020020000000000000000026
:101430000102030406070809A0860100400D03000D
:10144000801A060000350C0040420F0080841E0008
:1014500000093D0000127A000024F40000366E01FD
:101460000048E801006CDC0288140008000000203D
:101470002400000004130008AC140008240000201D
:101480000406000014130008000000000000000023
:10149000000000000100000010000000000000003B
:0C14A00000093D000000000000000000FA
:040000050800018D61
:00000001FF
